0118010010999991995010100004+70933-008667FM-12+0009ENJA V0203501N01341012001CN0010001N1-01081-01411100861ADDAA106000191AG10001AY181061AY231061GF107991071081008001999999MA1999999100741MD1210091+9999MW1851REMSYN011 333 91140;
0087010010999991995010103004+70933-008667FM-12+0009ENJA V0203501N01291220001CN0200001N1-00971-01621100951ADDAG12001AY181031AY211031GF101991011051008001001001MA1999999100831MD1210091+9999MW1361
0137010010999991995010106004+70933-008667FM-12+0009ENJA V0203301N00931012001CN0020001N1-00941-01301101111ADDAA199000191AG10001AY181061AY231061GF108991081081008001999999KA1120N-01151MA1999999100991MD1310161+9999MW1851REMSYN017 333 21115 91138;
0087010010999991995010109004+70933-008667FM-12+0009ENJA V0203401N00821220001CN0300001N1-00891-01561101301ADDAG12001AY181031AY211031GF102991021051008001001001MA1999999101181MD1210191+9999MW1011
0138010010999991995010112004+70933-008667FM-12+0009ENJA V0203501N00721009001CN0200001N1-00891-01521101481ADDAA106999929AG10001AY181061AY211061GF107991071081004501999999MA1999999101361MD1210181+9999MW1151SA1-0049REMSYN023 222// 01004 333 91133;
0065010010999991995010115004+70933-008667FM-12+0009ENJA V0203501N00411024001CN0500001N1-00881-01641101521ADDAG12000GF107991031081008001061021MA1999999101401MD1110041+9999
0137010010999991995010118004+70933-008667FM-12+0009ENJA V0203001N00151012001CN0550001N1-00861-01471101501ADDAA199999929AG10001AY181061AY221061GF108991081051012501999999KA1120M-00851MA1999999101381MD1810021+9999MW1261REMSYN017 333 11085 91124;
0065010010999991995010121004+70933-008667FM-12+0009ENJA V0202701N00511012001CN0550001N1-00831-01441101481ADDAG12000GF108991081051012501999999MA1999999101361MD1710021+9999
0118010010999991995010200004+70933-008667FM-12+0009ENJA V0201801N00571024001CN0150001N1-00691-01221101421ADDAA106999929AG10001AY171061AY221061GF108991031051008001021999MA1999999101301MD1610061+9999MW1701REMSYN011 333 91114;
0103010010999991995010203004+70933-008667FM-12+0009ENJA V0201801N01031000601CN0010001N1-00481-00701101141ADDAG12001AY171031AY271031GA1091+999999999GF109991091999999999999999MA1999999101021MD1810281+9999MW1731
0153010010999991995010206004+70933-008667FM-12+0009ENJA V0201601N00821001201CN0020001N1-00331-00431100771ADDAA199002091AG10001AY171061AY271061GA1091+999999999GF109991091999999999999999KA1120N-00941MA1999999100651MD1710371+9999MW1711REMSYN017 333 21094 91126;
0087010010999991995010209004+70933-008667FM-12+0009ENJA V0202401N00721004201CN0200001N1-00421-00681100811ADDAG12001AY181031AY271031GF108991081051004501999999MA1999999100691MD1310041+9999MW1851
0138010010999991995010212004+70933-008667FM-12+0009ENJA V0202401N00621024001CN0300001N1-00561-00861100901ADDAA106001091AG10001AY181061AY271061GF108991031081004501071999MA1999999100781MD1210091+9999MW1261SA1-0039REMSYN023 222// 01003 333 91131;
0065010010999991995010215004+70933-008667FM-12+0009ENJA V0202401N00411024001CN0250001N1-00491-00881101051ADDAG12000GF107991041081004501071999MA1999999100931MD1210151+9999
0115010010999991995010218004+70933-008667FM-12+0009ENJA V0202601N00511024001CN0250001N1-00441-00851101091ADDAA199001091AG10000GF105991021051008001071001KA1120M-00111MA1999999100971MD1110041+9999REMSYN017 333 11011 91125;
0065010010999991995010221004+70933-008667FM-12+0009ENJA V0202501N00721024001CN0250001N1-00421-00831101171ADDAG12000GF108991041051008001071999MA1999999101051MD1210081+9999
0096010010999991995010300004+70933-008667FM-12+0009ENJA V0202401N00621004201CN0250001N1-00411-00731101271ADDAA106000091AG14000GF108991071051004501071999MA1999999101151MD1210101+9999REMSYN011 333 91124;
0065010010999991995010303004+70933-008667FM-12+0009ENJA V0202001N00511004201CN0250001N1-00321-00661101161ADDAG12000GF108991081051004501999999MA1999999101041MD1810111+9999
0115010010999991995010306004+70933-008667FM-12+0009ENJA V0203101N00361004201CN0300001N1-00371-00691101041ADDAA106000091AG14000GF108991071051004501071999KA1120N-00451MA1999999100921MD1710121+9999REMSYN017 333 21045 91123;
0065010010999991995010309004+70933-008667FM-12+0009ENJA V0203601N00211012001CN0300001N1-00311-00571100871ADDAG12000GF108991071051012501071999MA1999999100751MD1710171+9999
0138010010999991995010312004+70933-008667FM-12+0009ENJA V0200901N00721002101CN0150001N1-00121-00261100641ADDAA106000091AG14000AY121061AY221061GF108991071051002501021999MA1999999100521MD1710231+9999MW1151SA1+0009REMSYN023 222// 00000 333 91121;
0087010010999991995010315004+70933-008667FM-12+0009ENJA V0201101N00571001201CN0030001N1+00041-00071100241ADDAG12000AY151031AY221031GF108991081061001501999999MA1999999100121MD1710401+9999MW1501
0137010010999991995010318004+70933-008667FM-12+0009ENJA V0201701N00621001201CN0030001N1+00121+00041099831ADDAA199000591AG10001AY161061AY251061GF108991081061001501999999KA1120M+00131MA1999999099711MD1710411+9999MW1581REMSYN017 333 10013 91122;
0087010010999991995010321004+70933-008667FM-12+0009ENJA V0201601N00871001201CN0050001N1+00161+00091099471ADDAG12001AY161031AY251031GF108991081061001501999999MA1999999099361MD1710351+9999MW1581
0118010010999991995010400004+70933-008667FM-12+0009ENJA V0201601N01081001201CN0050001N1+00171+00101098911ADDAA106006091AG10001AY161061AY251061GF108991081061001501999999MA1999999098801MD1710561+9999MW1581REMSYN011 333 91128;
0087010010999991995010403004+70933-008667FM-12+0009ENJA V0201701N01231002101CN0100001N1+00211+00141098511ADDAG12001AY161031AY251031GF108991081051002501999999MA1999999098401MD1710401+9999MW1021
0137010010999991995010406004+70933-008667FM-12+0009ENJA V0201901N01441004201CN0100001N1+00171-00021098311ADDAA199006091AG10001AY161061AY251061GF107991061051004501071999KA1120N+00081MA1999999098201MD1710201+9999MW1021REMSYN017 333 20008 91134;
0065010010999991995010409004+70933-008667FM-12+0009ENJA V0202001N01541006001CN0150001N1-00101-00351098461ADDAG12000GF107991061081002501071999MA1999999098341MD1310141+9999
0116010010999991995010412004+70933-008667FM-12+0009ENJA V0202001N01591009001CN0120001N1-00341-00601098571ADDAA106000091AG14000GF108991071081004501071999MA1999999098451MD1210111+9999SA1+0029REMSYN023 222// 00002 333 91137;
0065010010999991995010415004+70933-008667FM-12+0009ENJA V0202301N00671009001CN0150001N1-00511-00771098541ADDAG12000GF107991061081004501071999MA1999999098421MD1710031+9999
0115010010999991995010418004+70933-008667FM-12+0009ENJA V0203101N00051220001CN0250001N1-00451-00841098371ADDAA106000091AG14000GF102991011001022501071071KA1120M+00171MA1999999098251MD1710171+9999REMSYN017 333 10017 91135;
0065010010999991995010421004+70933-008667FM-12+0009ENJA V0202301N005710075019N0250001N1-00511-00931098321ADDAG12000GF108991051051008001071999MA1999999098201MD1710051+9999
0118010010999991995010500004+70933-008667FM-12+0009ENJA V0202201N00621007501CN0060001N1-00571-00991098331ADDAA106000191AG10001AY171061AY221061GF108991081051008001999999MA1999999098211MD1210011+9999MW1711REMSYN011 333 91121;
0087010010999991995010503004+70933-008667FM-12+0009ENJA V0202301N00671009001CN0100001N1-00461-00851098471ADDAG12001AY181031AY271031GF108991081081004501999999MA1999999098351MD1310141+9999MW1851
0137010010999991995010506004+70933-008667FM-12+0009ENJA V0202601N00871004201CN0300001N1-00521-00891098651ADDAA199000191AG10001AY181061AY271061GF108991081061004501999999KA1120N-00591MA1999999098531MD1210181+9999MW1021REMSYN017 333 21059 91132;
0087010010999991995010509004+70933-008667FM-12+0009ENJA V0202701N00361009001CN0200001N1-00531-00901098841ADDAG12001AY181031AY221031GF108991071081004501999999MA1999999098721MD1210191+9999MW1851
0157010010999991995010512004+70933-008667FM-12+0009ENJA V0202801N00151007501CN0200001N1-00521-00841098871ADDAA106999929AG10001AY181061AY271061GF108991051051008001071999MA1999999098741MD1210031+9999MW1021SA1+0059REMSYN023 222// 00005 333 91132;EQDQ01+999990APOSP 
0065010010999991995010515004+70933-008667FM-12+0009ENJA V0203601N00311004201CN0150001N1-00521-00841098611ADDAG12000GF108991061051004501071999MA1999999098491MD1810261+9999
0115010010999991995010518004+70933-008667FM-12+0009ENJA V0203501N00411007501CN0300001N1-00401-00731098411ADDAA199999929AG10000GF108991081051008001999999KA1120M-00401MA1999999098291MD1710201+9999REMSYN017 333 11040 91116;
0065010010999991995010521004+70933-008667FM-12+0009ENJA V0203601N01131004201CN0150001N1-00271-00581098251ADDAG12000GF108991081061004501999999MA1999999098131MD1710161+9999
0134010010999991995010600004+70933-008667FM-12+0009ENJA V0203501N01441000601CN0008001N1-00211-00321098201ADDAA106000391AG10001AY171061AY231061GA1091+999999999GF109991091999999999999999MA1999999098081MD1610051+9999MW1711REMSYN011 333 91138;
0087010010999991995010603004+70933-008667FM-12+0009ENJA V0203601N00981007501CN0150001N1-00081-00221098171ADDAG12001AY171031AY231031GF108991081051008001999999MA1999999098051MD1710031+9999MW1701
0137010010999991995010606004+70933-008667FM-12+0009ENJA V0203601N01231220001CN0020001N1-00081-00241098171ADDAA199000391AG10001AY171061AY231061GF102991021051008001001001KA1120N-00401MA1999999098051MD1510001+9999MW1381REMSYN017 333 21040 91138;
0087010010999991995010609004+70933-008667FM-12+0009ENJA V0203601N01391006001CN0080001N1-00101-00211098391ADDAG12001AY181031AY231031GF106991061081002501999999MA1999999098271MD1210221+9999MW1851
0138010010999991995010612004+70933-008667FM-12+0009ENJA V0203601N01341006001CN0020001N1-00081-00191098661ADDAA106000191AG10001AY181061AY231061GF107991071081002501999999MA1999999098541MD1210271+9999MW1851SA1+0069REMSYN023 222// 00006 333 91141;
0087010010999991995010615004+70933-008667FM-12+0009ENJA V0203601N00981002101CN0060001N1-00041-00151098991ADDAG12001AY181031AY231031GF108991081061002501999999MA1999999098871MD1210331+9999MW1101
0137010010999991995010618004+70933-008667FM-12+0009ENJA V0203401N00771001201CN0050001N1-00071-00231099371ADDAA199000191AG10001AY181061AY231061GF108991081051001501999999KA1120M-00101MA1999999099251MD1210381+9999MW1851REMSYN017 333 11010 91132;
0087010010999991995010621004+70933-008667FM-12+0009ENJA V0203401N00821002101CN0030001N1-00121-00261099621ADDAG12001AY181031AY221031GF106991061051002501999999MA1999999099501MD1210251+9999MW1851
0118010010999991995010700004+70933-008667FM-12+0009ENJA V0203401N00571007501CN0200001N1-00191-00461099851ADDAA106999929AG10001AY181061AY221061GF108991061051008001071999MA1999999099731MD1210231+9999MW1021REMSYN011 333 91125;
0065010010999991995010703004+70933-008667FM-12+0009ENJA V0203401N00571220001CN0300001N1-00311-00571099821ADDAG12000GF103991031051008001001001MA1999999099701MD1810031+9999
0115010010999991995010706004+70933-008667FM-12+0009ENJA V0201001N00511007501CN0200001N1-00201-00421099421ADDAA199999929AG10000GF108991081051008001999999KA1120N-00331MA1999999099301MD1710401+9999REMSYN017 333 21033 91115;
0065010010999991995010709004+70933-008667FM-12+0009ENJA V0200901N00981007501CN0150001N1-00151-00381098891ADDAG12000GF108991081051008001999999MA1999999098771MD1810531+9999
0138010010999991995010712004+70933-008667FM-12+0009ENJA V0200701N01391007501CN0015001N1-00171-00331097881ADDAA106000191AG10001AY171061AY221061GF108991051051008001021999MA1999999097761MD1711011+9999MW1731SA1+0059REMSYN023 222// 00005 333 91132;
0087010010999991995010715004+70933-008667FM-12+0009ENJA V0200301N01081007501CN0020001N1-00131-00211096881ADDAG12001AY171031AY271031GF108991081071008001999999MA1999999096761MD1711001+9999MW1711
0137010010999991995010718004+70933-008667FM-12+0009ENJA V0203601N01391009001CN0050001N1-00061-00311096341ADDAA199001091AG10001AY171061AY231061GF108991081081004501999999KA1120M+00061MA1999999096221MD1610541+9999MW1381REMSYN017 333 10006 91150;
0103010010999991995010721004+70933-008667FM-12+0009ENJA V0203601N01701000301CN0003001N1-00151-00261096021ADDAG12001AY181031AY231031GA1091+999999999GF109991091999999999999999MA1999999095901MD1710321+9999MW1861
0134010010999991995010800004+70933-008667FM-12+0009ENJA V0200101N01541000301CN0005001N1-00111-00171096131ADDAA106002091AG10001AY181061AY231061GA1091+999999999GF109991091999999999999999MA1999999096021MD1310121+9999MW1861REMSYN011 333 91153;
0103010010999991995010803004+70933-008667FM-12+0009ENJA V0200101N01751000601CN0007001N1-00211-00271096601ADDAG12001AY181031AY231031GA1091+999999999GF109991091999999999999999MA1999999096491MD1210471+9999MW1861
0137010010999991995010806004+70933-008667FM-12+0009ENJA V0203401N01291006001CN0020001N1-00381-00521097081ADDAA199005091AG10001AY181061AY231061GF108991081081002501999999KA1120N-00391MA1999999096961MD1210471+9999MW1381REMSYN017 333 21039 91155;
0087010010999991995010809004+70933-008667FM-12+0009ENJA V0203401N01031006001CN0030001N1-00431-00631097431ADDAG12001AY181031AY231031GF108991081081002501999999MA1999999097311MD1210351+9999MW1851
0138010010999991995010812004+70933-008667FM-12+0009ENJA V0203401N00721006001CN0020001N1-00561-00741097701ADDAA106001091AG10001AY181061AY231061GF108991081081002501999999MA1999999097581MD1210271+9999MW1851SA1+0019REMSYN023 222// 00001 333 91142;
0103010010999991995010815004+70933-008667FM-12+0009ENJA V0203301N00931000301CN0004001N1-00531-00691097751ADDAG12001AY181031AY231031GA1091+999999999GF109991091999999999999999MA1999999097631MD1110051+9999MW1861
0153010010999991995010818004+70933-008667FM-12+0009ENJA V0203501N01341000601CN0008001N1-00491-00691098081ADDAA199004091AG10001AY181061AY231061GA1091+999999999GF109991091999999999999999KA1120M-00371MA1999999097961MD1310331+9999MW1861REMSYN017 333 11037 91145;
0087010010999991995010821004+70933-008667FM-12+0009ENJA V0203501N01081006001CN0020001N1-00531-00811098451ADDAG12001AY181031AY231031GF108991081081002501999999MA1999999098331MD1210371+9999MW1381
0134010010999991995010900004+70933-008667FM-12+0009ENJA V0203301N015410003019N0004001N1-00581-00841098451ADDAA106001091AG10001AY181061AY231061GA1091+999999999GF109991091999999999999999MA1999999098331MD1010001+9999MW1861REMSYN011 333 91147;
0087010010999991995010903004+70933-008667FM-12+0009ENJA V0203401N01131006001CN0020001N1-00491-00661098651ADDAG12001AY181031AY231031GF108991081081002501999999MA1999999098531MD1210201+9999MW1851
0137010010999991995010906004+70933-008667FM-12+0009ENJA V0203501N00931006001CN0040001N1-00451-00631098621ADDAA199002091AG10001AY181061AY231061GF108991081081002501999999KA1120N-00621MA1999999098501MD1810031+9999MW1361REMSYN017 333 21062 91143;
0087010010999991995010909004+70933-008667FM-12+0009ENJA V0203501N00821006001CN0030001N1-00411-00641098691ADDAG12001AY181031AY231031GF108991081081002501999999MA1999999098571MD1210071+9999MW1851
0137010010999991995010911004+70933-008667FM-12+0009ENJA V0203601N01231006001CN0030001N1-00381-00551099051ADDAA199002091AG10999AY181021AY231021GF108991081081002501999999KA1120M-00331MA1999999098931MD1210151+9999MW1851REMSYN017 333 11033 91132;
0138010010999991995010912004+70933-008667FM-12+0009ENJA V0203501N00721006001CN0030001N1-00351-00561098751ADDAA106001091AG10001AY181061AY231061GF108991081081002501999999MA1999999098631MD1210061+9999MW1851SA1-0019REMSYN023 222// 01001 333 91130;
0087010010999991995010914004+70933-008667FM-12+0009ENJA V0203501N00931006001CN0025001N1-00351-00521098901ADDAG12999AY181021AY231021GF108991081081002501999999MA1999999098781MD1210151+9999MW1851
0087010010999991995010915004+70933-008667FM-12+0009ENJA V0203501N00931006001CN0025001N1-00351-00521098901ADDAG12001AY181031AY231031GF108991081081002501999999MA1999999098781MD1210151+9999MW1851
0137010010999991995010918004+70933-008667FM-12+0009ENJA V0203601N01231006001CN0030001N1-00381-00551099051ADDAA199002091AG10001AY181061AY231061GF108991081081002501999999KA1120M-00331MA1999999098931MD1210151+9999MW1851REMSYN017 333 11033 91132;
0087010010999991995010921004+70933-008667FM-12+0009ENJA V0203601N01391006001CN0030001N1-00421-00621099301ADDAG12001AY181031AY231031GF108991081081002501999999MA1999999099181MD1210251+9999MW1851
0118010010999991995011000004+70933-008667FM-12+0009ENJA V0203401N01541006001CN0020001N1-00431-00581099291ADDAA106000191AG10001AY181061AY231061GF108991081081002501999999MA1999999099171MD1810011+9999MW1851REMSYN011 333 91145;
0087010010999991995011003004+70933-008667FM-12+0009ENJA V0203401N01591009001CN0050001N1-00421-00571099491ADDAG12001AY181031AY231031GF108991081081004501999999MA1999999099371MD1110201+9999MW1851
0194010010999991995011006004+70933-008667FM-12+0009ENJA V0203401N01341006001CN0015001N1-00391-00561099651ADDAA199000591AG10001AY181061AY231061GF108991081081002501999999KA1120M-00371KA2120N-00441MA1999999099531MD1110161+9999MW1861OA149902631OA259901751REMSYN039 333 21044 91151 555 04334 11037 4672/;
0103010010999991995011009004+70933-008667FM-12+0009ENJA V0203501N01541000301CN0002001N1-00381-00491099841ADDAG12001AY181031AY231031GA1091+999999999GF109991091999999999999999MA1999999099721MD1210191+9999MW1861
0154010010999991995011012004+70933-008667FM-12+0009ENJA V0203601N01341000301CN0004001N1-00351-00461100051ADDAA106003091AG10001AY181061AY231061GA1091+999999999GF109991091999999999999999MA1999999099931MD1210211+9999MW1861SA1-0019REMSYN023 222// 01001 333 91148;
0087010010999991995011015004+70933-008667FM-12+0009ENJA V0203501N01031006001CN0020001N1-00241-00351100291ADDAG12001AY181031AY231031GF108991081081002501999999MA1999999100171MD1210241+9999MW1851
0153010010999991995011018004+70933-008667FM-12+0009ENJA V0203501N01341000301CN0004001N1-00451-00561100451ADDAA199006091AG10001AY181061AY231061GA1091+999999999GF109991091999999999999999KA1120M-00161MA1999999100331MD1210161+9999MW1861REMSYN017 333 11016 91147;
0103010010999991995011021004+70933-008667FM-12+0009ENJA V0203501N01341000601CN0008001N1-00081-00181100661ADDAG12001AY181031AY231031GA1091+999999999GF109991091999999999999999MA1999999100541MD1210211+9999MW1861
0118010010999991995011100004+70933-008667FM-12+0009ENJA V0203601N01131006001CN0020001N1-00051-00131100961ADDAA106003091AG10001AY181061AY231061GF107991071081002501999999MA1999999100841MD1210301+9999MW1851REMSYN011 333 91143;
0087010010999991995011103004+70933-008667FM-12+0009ENJA V0203501N00721004201CN0100001N1-00051-00131101261ADDAG12001AY181031AY221031GF108991081051004501999999MA1999999101141MD1210301+9999MW1361
0137010010999991995011106004+70933-008667FM-12+0009ENJA V0203601N00721024001CN0200001N1-00081-00221101461ADDAA199003091AG10001AY181061AY231061GF106991041051008001071999KA1120N-00171MA1999999101341MD1210201+9999MW1021REMSYN017 333 21017 91131;
0087010010999991995011109004+70933-008667FM-12+0009ENJA V0203601N00511220001CN0250001N1-00161-00321101701ADDAG12001AY181031AY221031GF104991021011008001071021MA1999999101581MD1210241+9999MW1851
0138010010999991995011112004+70933-008667FM-12+0009ENJA V0202901N00151024001CN0050001N1-00181-00371101791ADDAA106000191AG10001AY181061AY221061GF107991041081008001071999MA1999999101671MD1110091+9999MW1851SA1+0019REMSYN023 222// 00001 333 91121;
0087010010999991995011115004+70933-008667FM-12+0009ENJA V0203001N00981009001CN0060001N1-00281-00471101851ADDAG12001AY181031AY221031GF108991081081004501999999MA1999999101731MD1210061+9999MW1261
0137010010999991995011118004+70933-008667FM-12+0009ENJA V0202801N00771009001CN0050001N1-00471-00811101971ADDAA199001091AG10001AY181061AY221061GF108991081081004501999999KA1120M-00071MA1999999101851MD1310121+9999MW1851REMSYN017 333 11007 91133;
0087010010999991995011121004+70933-008667FM-12+0009ENJA V0202601N00461220001CN0150001N1-00621-01161102011ADDAG12001AY181031AY221031GF104991041021004501001001MA1999999101891MD1210041+9999MW1851
0118010010999991995011200004+70933-008667FM-12+0009ENJA V0202201N00361012001CN0250001N1-00611-01151101971ADDAA106999929AG10001AY181061AY211061GF107991071081008001999999MA1999999101851MD1710041+9999MW1151REMSYN011 333 91128;
0087010010999991995011203004+70933-008667FM-12+0009ENJA V0202501N00151012001CN0150001N1-00521-00861101771ADDAG12001AY181031AY221031GF107991071081008001999999MA1999999101651MD1810201+9999MW1261
0137010010999991995011206004+70933-008667FM-12+0009ENJA V0202401N00261004201CN0100001N1-00441-00621101511ADDAA199000191AG10001AY181061AY271061GF108991081051004501999999KA1120N-00631MA1999999101391MD1710261+9999MW1701REMSYN017 333 21063 91110;
0087010010999991995011209004+70933-008667FM-12+0009ENJA V0202301N00101024001CN0250001N1-00391-00531101261ADDAG12001AY171031AY221031GF108991021051004501071999MA1999999101141MD1710251+9999MW1221
0138010010999991995011212004+70933-008667FM-12+0009ENJA V0201701N01131024001CN0100001N1-00021-00291100741ADDAA106000191AG10001AY171061AY221061GF108991021041004501071999MA1999999100621MD1810521+9999MW1701SA1+0049REMSYN023 222// 00004 333 91127;
0087010010999991995011215004+70933-008667FM-12+0009ENJA V0201601N01441004201CN0020001N1+00001-00111100121ADDAG12001AY171031AY221031GF108991081071004501999999MA1999999100001MD1810621+9999MW1711
0137010010999991995011218004+70933-008667FM-12+0009ENJA V0201701N01341002101CN0040001N1+00041-00051099511ADDAA199001091AG10001AY171061AY271061GF108991081071002501999999KA1120M+00041MA1999999099401MD1710601+9999MW1711REMSYN017 333 10004 91135;
0169010010999991995011300004+70933-008667FM-12+0009ENJA V0202001N01081002101CN0020001N1+00031-00031098252ADDAA106004091AG10001AY171061AY271061GF108991081071002501999999MA1999999098142MD1710592+9999MW1681REMSYN011 333 91132;EQDQ01+098143APOSP Q02+098253APOSLPQ03+000592APC3  
0087010010999991995011303004+70933-008667FM-12+0009ENJA V0202501N00771002101CN0045001N1-00101-00501098041ADDAG12001AY171031AY221031GF108991061071002501071999MA1999999097921MD1610221+9999MW1151
0137010010999991995011306004+70933-008667FM-12+0009ENJA V0202201N00621009001CN0100001N1-00191-00741097891ADDAA199005091AG10001AY171061AY221061GF107991051081004501071999KA1120N-00201MA1999999097771MD1710151+9999MW1011REMSYN017 333 21020 91127;
0065010010999991995011309004+70933-008667FM-12+0009ENJA V0202501N00461024001CN0250001N1-00281-01061097581ADDAG12000GF108991041081008001071999MA1999999097461MD1710311+9999
0154010010999991995011312004+70933-008667FM-12+0009ENJA V0202701N00511001201CN0015001N1-00431-00801097521ADDAA106002091AG10001AY181061AY221061GA1091+999999999GF109991091999999999999999MA1999999097401MD1610061+9999MW1861SA1+0029REMSYN023 222// 00002 333 91121;
0087010010999991995011315004+70933-008667FM-12+0009ENJA V0202001N00871004201CN0150001N1-00351-00631097371ADDAG12001AY181031AY221031GF107991061091004501061999MA1999999097251MD1810151+9999MW1261
0137010010999991995011318004+70933-008667FM-12+0009ENJA V0202101N00981004201CN0060001N1-00331-00741097131ADDAA199002091AG10001AY181061AY221061GF107991061031004501061999KA1120M-00081MA1999999097011MD1710241+9999MW1851REMSYN017 333 11008 91131;
0087010010999991995011321004+70933-008667FM-12+0009ENJA V0202301N00871009001CN0050001N1-00411-00621096951ADDAG12001AY181031AY221031GF106991051081004501061999MA1999999096831MD1710181+9999MW1261
0118010010999991995011400004+70933-008667FM-12+0009ENJA V0202301N00771004201CN0150001N1-00421-00741096841ADDAA106003091AG10001AY181061AY221061GF107991051091004501061999MA1999999096721MD1710111+9999MW1261REMSYN011 333 91134;
0087010010999991995011403004+70933-008667FM-12+0009ENJA V0202101N00721009001CN0100001N1-00311-00641096731ADDAG12001AY181031AY221031GF108991071081004501999999MA1999999096611MD1710111+9999MW1851
0137010010999991995011406004+70933-008667FM-12+0009ENJA V0202501N00721004201CN0050001N1-00551-00881096871ADDAA199004091AG10001AY181061AY231061GF107991061091004501061999KA1120N-00551MA1999999096751MD1310141+9999MW1851REMSYN017 333 21055 91127;
0087010010999991995011409004+70933-008667FM-12+0009ENJA V0202501N00721012001CN0400001N1-00671-01101097141ADDAG12001AY181031AY231031GF107991051081008001071999MA1999999097021MD1210271+9999MW1851
0138010010999991995011412004+70933-008667FM-12+0009ENJA V0202301N01081009001CN0180001N1-00671-01061097151ADDAA106000191AG10001AY181061AY221061GF107991071081004501999999MA1999999097031MD1210011+9999MW1361SA1+0009REMSYN023 222// 00000 333 91127;
0087010010999991995011415004+70933-008667FM-12+0009ENJA V0202301N01081006001CN0030001N1-00521-00691097121ADDAG12001AY181031AY231031GF107991071081002501999999MA1999999097001MD1710031+9999MW1381
0153010010999991995011418004+70933-008667FM-12+0009ENJA V0202701N00821000301CN0005001N1-00671-00821097851ADDAA199003091AG10001AY181061AY231061GA1091+999999999GF109991091999999999999999KA1120M-00451MA1999999097731MD1310731+9999MW1861REMSYN017 333 11045 91153;
0087010010999991995011421004+70933-008667FM-12+0009ENJA V0202701N00771012001CN0100001N1-00841-01121098311ADDAG12001AY181031AY231031GF107991071081008001999999MA1999999098191MD1210461+9999MW1851
0118010010999991995011500004+70933-008667FM-12+0009ENJA V0202701N01081220001CN0050001N1-00821-01231098521ADDAA106000591AG10001AY181061AY231061GF104991041081008001001001MA1999999098401MD1210211+9999MW1361REMSYN011 333 91136;
0087010010999991995011503004+70933-008667FM-12+0009ENJA V0202801N00931220001CN0200001N1-00761-01171098711ADDAG12001AY181031AY231031GF103991031081008001001001MA1999999098591MD1210191+9999MW1851
0137010010999991995011506004+70933-008667FM-12+0009ENJA V0202501N00461220001CN0200001N1-00671-01191098861ADDAA199000591AG10001AY181061AY231061GF103991031081008001001001KA1120N-00871MA1999999098741MD1210151+9999MW1021REMSYN017 333 21087 91136;
0087010010999991995011509004+70933-008667FM-12+0009ENJA V0203101N00411012001CN0200001N1-00671-01121099131ADDAG12001AY181031AY211031GF107991071081008001999999MA1999999099011MD1310271+9999MW1851
0138010010999991995011512004+70933-008667FM-12+0009ENJA V0203001N00931220001CN0180001N1-00711-01341099371ADDAA106001091AG10001AY181061AY231061GF105991041021008001001081MA1999999099251MD1210241+9999MW1381SA1+0019REMSYN023 222// 00001 333 91128;
0087010010999991995011515004+70933-008667FM-12+0009ENJA V0202901N01081060001CN0015001N1-00561-00941099431ADDAG12001AY181031AY231031GF106991041091008001001081MA1999999099311MD1110061+9999MW1851
0137010010999991995011518004+70933-008667FM-12+0009ENJA V0202001N00931024001CN0150001N1-00491-00881099531ADDAA199002091AG10001AY181061AY231061GF107991031081008001071999KA1120M-00441MA1999999099411MD1210101+9999MW1851REMSYN017 333 11044 91132;
0087010010999991995011521004+70933-008667FM-12+0009ENJA V0203501N00151024001CN0200001N1-00501-01091099451ADDAG12001AY181031AY231031GF107991031061004501071999MA1999999099331MD1810081+9999MW1021
0118010010999991995011600004+70933-008667FM-12+0009ENJA V0200701N01491024001CN0200001N1-00421-00961099051ADDAA106999929AG10001AY181061AY231061GF106991031081008001051001MA1999999098931MD1810401+9999MW1021REMSYN011 333 91136;
0087010010999991995011603004+70933-008667FM-12+0009ENJA V0200601N02001007501CN0020001N1-00481-00741098341ADDAG12001AY171031AY231031GF108991081071008001999999MA1999999098221MD1710711+9999MW1701
0153010010999991995011606004+70933-008667FM-12+0009ENJA V0200401N01851000151CN0001001N1-00411-00491097621ADDAA199001091AG10001AY171061AY231061GA1091+999999999GF109991091999999999999999KA1120N-00561MA1999999097501MD1710721+9999MW1731REMSYN017 333 21056 91160;
0103010010999991995011609004+70933-008667FM-12+0009ENJA V0200501N02061000151CN0001001N1-00281-00361097061ADDAG12001AY171031AY231031GA1091+999999999GF109991091999999999999999MA1999999096941MD1610561+9999MW1701
0154010010999991995011612004+70933-008667FM-12+0009ENJA V0200101N01341000151CN0000001N1-00351-00421097151ADDAA106007091AG10001AY171061AY231061GA1091+999999999GF109991091999999999999999MA1999999097031MD1810091+9999MW1731SA1-0059REMSYN023 222// 01005 333 91158;
0087010010999991995011615004+70933-008667FM-12+0009ENJA V0200301N00101024001CN0050001N1-00341-00411097241ADDAG12001AY181031AY271031GF107991041091008001061999MA1999999097121MD1310091+9999MW1161
0137010010999991995011618004+70933-008667FM-12+0009ENJA V0201601N00931007501CN0030001N1-00171-00241097411ADDAA199007091AG10001AY181061AY271061GF106991061091008001999999KA1120M-00141MA1999999097291MD1310171+9999MW1851REMSYN017 333 11014 91134;
0087010010999991995011621004+70933-008667FM-12+0009ENJA V0200901N00361007501CN0150001N1-00151-00221097641ADDAG12001AY181031AY221031GF107991071051008001999999MA1999999097521MD1210231+9999MW1021
0118010010999991995011700004+70933-008667FM-12+0009ENJA V0200301N00311024001CN0300001N1-00241-00291097801ADDAA106000191AG10001AY181061AY221061GF108991041051008001071071MA1999999097681MD1210161+9999MW1021REMSYN011 333 91123;
0087010010999991995011703004+70933-008667FM-12+0009ENJA V0200701N01231004201CN0050001N1-00181-00241097911ADDAG12001AY171031AY221031GF108991081051004501999999MA1999999097791MD1110111+9999MW1701
0153010010999991995011706004+70933-008667FM-12+0009ENJA V0200201N01391002401CN0025001N1-00351-00401098061ADDAA199000191AG10001AY171061AY231061GA1091+999999999GF109991091999999999999999KA1120N-00351MA1999999097941MD1210151+9999MW1711REMSYN017 333 21035 91145;
0103010010999991995011709004+70933-008667FM-12+0009ENJA V0200101N01951000151CN0000001N1-00361-00411098201ADDAG12001AY171031AY231031GA1091+999999999GF109991091999999999999999MA1999999098081MD1210141+9999MW1731
0138010010999991995011712004+70933-008667FM-12+0009ENJA V0200101N01751009001CN0002001N1-00321-00371098511ADDAA106002091AG10001AY181061AY271061GF106991061081004501999999MA1999999098391MD1310311+9999MW1391SA1-0029REMSYN023 222// 01002 333 91152;
0087010010999991995011715004+70933-008667FM-12+0009ENJA V0200101N01541009001CN0015001N1-00291-00341098791ADDAG12001AY181031AY231031GF107991061081004501061999MA1999999098671MD1210281+9999MW1381
0153010010999991995011718004+70933-008667FM-12+0009ENJA V0200201N01441001201CN0015001N1-00271-00321099121ADDAA199002091AG10001AY181061AY231061GA1091+999999999GF109991091999999999999999KA1120M-00251MA1999999099001MD1210331+9999MW1851REMSYN017 333 11025 91142;
0087010010999991995011721004+70933-008667FM-12+0009ENJA V0200101N01131009001CN0100001N1-00231-00281099441ADDAG12001AY181031AY231031GF108991081081004501999999MA1999999099321MD1210321+9999MW1381
0118010010999991995011800004+70933-008667FM-12+0009ENJA V0200101N00821009001CN0100001N1-00131-00191099541ADDAA106000191AG10001AY181061AY231061GF106991051081004501071999MA1999999099421MD1210101+9999MW1381REMSYN011 333 91138;
0087010010999991995011803004+70933-008667FM-12+0009ENJA V0200101N00361009001CN0200001N1-00171-00251099701ADDAG12001AY181031AY231031GF106991051081004501071999MA1999999099581MD1210161+9999MW1021
0137010010999991995011806004+70933-008667FM-12+0009ENJA V0200101N01541009001CN0020001N1-00141-00231099591ADDAA199000191AG10001AY181061AY231061GF108991081081004501999999KA1120N-00291MA1999999099471MD1710111+9999MW1381REMSYN017 333 21029 91148;
0087010010999991995011809004+70933-008667FM-12+0009ENJA V0200401N00931024001CN0200001N1+00071-00111099401ADDAG12000AY131031AY221031GF108991041051008001071999MA1999999099281MD1710191+9999MW1021
0138010010999991995011812004+70933-008667FM-12+0009ENJA V0200301N01491004201CN0020001N1-00081-00221099181ADDAA106999929AG10001AY171061AY231061GF108991051051004501021999MA1999999099061MD1710221+9999MW1701SA1+0009REMSYN023 222// 00000 333 91140;
0087010010999991995011815004+70933-008667FM-12+0009ENJA V0200401N01801004201CN0070001N1+00111+00011098541ADDAG12001AY171031AY231031GF108991061071004501021999MA1999999098431MD1810631+9999MW1151
0153010010999991995011818004+70933-008667FM-12+0009ENJA V0200501N02211001201CN0015001N1+00101-00091097871ADDAA199000591AG10001AY171061AY231061GA1091+999999999GF109991091999999999999999KA1120M+00181MA1999999097761MD1710671+9999MW1691REMSYN017 333 10018 91159;
0087010010999991995011821004+70933-008667FM-12+0009ENJA V0200701N01641002101CN0030001N1+00171+00011097771ADDAG12001AY171031AY221031GF108991081071002501999999MA1999999097661MD1710101+9999MW1691
0118010010999991995011900004+70933-008667FM-12+0009ENJA V0200801N01181004201CN0060001N1+00221+00121097731ADDAA106003091AG10001AY171061AY261061GF108991081051004501999999MA1999999097621MD1710041+9999MW1211REMSYN011 333 91159;
0087010010999991995011903004+70933-008667FM-12+0009ENJA V0201101N00671002101CN0010001N1+00151+00061098011ADDAG12001AY161031AY251031GF108991081061002501999999MA1999999097901MD1310281+9999MW1101
0137010010999991995011906004+70933-008667FM-12+0009ENJA V0201401N00311220001CN0100001N1+00091+00001098521ADDAA199003091AG10001AY161061AY251061GF104991031061002501071011KA1120N+00081MA1999999098411MD1210511+9999MW1011REMSYN017 333 20008 91131;
0087010010999991995011909004+70933-008667FM-12+0009ENJA V0201301N00511220001CN0070001N1+00111+00031099081ADDAG12000AY111031AY211031GF103991021061002501071001MA1999999098971MD1210561+9999MW1101
0138010010999991995011912004+70933-008667FM-12+0009ENJA V0201101N00101001201CN0010001N1+00051-00021099541ADDAA106000091AG14000AY141061AY211061GF107991071061001501999999MA1999999099431MD1210461+9999MW1401SA1+0049REMSYN023 222// 00004 333 91118;
0087010010999991995011915004+70933-008667FM-12+0009ENJA V0201101N00621002101CN0090001N1+00151+00051099761ADDAG12000AY141031AY221031GF108991051061002501071999MA1999999099641MD1110211+9999MW1101
0137010010999991995011918004+70933-008667FM-12+0009ENJA V0201001N00361004201CN0040001N1+00121+00021099991ADDAA106000091AG10000AY121061AY221061GF108991071061004501999999KA1120M+00181MA1999999099871MD1210231+9999MW1101REMSYN017 333 10018 91115;
0087010010999991995011921004+70933-008667FM-12+0009ENJA V0201001N00621004201CN0080001N1+00181+00081100091ADDAG12001AY181031AY221031GF108991051061004501071999MA1999999099971MD1210101+9999MW1101
0118010010999991995012000004+70933-008667FM-12+0009ENJA V0201001N00621004201CN0060001N1+00061-00041100151ADDAA106003091AG10003AY191061AY281061GF107991071061004501999999MA1999999100031MD1210061+9999MW1101REMSYN011 333 91126;
0087010010999991995012003004+70933-008667FM-12+0009ENJA V0201001N00571004201CN0060001N1+00101+00011100191ADDAG12000AY121031AY221031GF108991051061004501071999MA1999999100071MD1210041+9999MW1101
0137010010999991995012006004+70933-008667FM-12+0009ENJA V0200501N00211006001CN0050001N1+00081+00021100161ADDAA199004091AG10001AY181061AY221061GF108991071081002501999999KA1120N+00041MA1999999100041MD1710031+9999MW1101REMSYN017 333 20004 91119;
0087010010999991995012009004+70933-008667FM-12+0009ENJA V0201001N00621006001CN0080001N1+00101+00031100211ADDAG12001AY181031AY221031GF107991051081002501071999MA1999999100091MD1210051+9999MW1101
0138010010999991995012012004+70933-008667FM-12+0009ENJA V0200901N00361006001CN0080001N1+00131+00051100281ADDAA106000591AG10001AY181061AY221061GF107991061081002501071999MA1999999100161MD1210071+9999MW1101SA1+0049REMSYN023 222// 00004 333 91116;
0087010010999991995012015004+70933-008667FM-12+0009ENJA V0200801N00621006001CN0020001N1+00131+00051100261ADDAG12001AY181031AY221031GF107991051081002501041999MA1999999100141MD1810021+9999MW1101
0137010010999991995012018004+70933-008667FM-12+0009ENJA V0200501N00361001201CN0150001N1+00141+00051100271ADDAA199000591AG10001AY181061AY221061GF108991081061001501999999KA1120M+00191MA1999999100151MD1210011+9999MW1021REMSYN017 333 10019 91119;
0065010010999991995012021004+70933-008667FM-12+0009ENJA V0200601N00671007501CN0150001N1+00211+00121100181ADDAG12000GF108991081051008001999999MA1999999100061MD1710091+9999
0118010010999991995012100004+70933-008667FM-12+0009ENJA V0200701N00981006001CN0100001N1+00171+00071100041ADDAA106999929AG10001AY181061AY221061GF107991051081002501071999MA1999999099921MD1710141+9999MW1251REMSYN011 333 91125;
0087010010999991995012103004+70933-008667FM-12+0009ENJA V0200701N01231004201CN0150001N1+00141-00011099821ADDAG12001AY161031AY221031GF107991061051004501071999MA1999999099701MD1710221+9999MW1021
0137010010999991995012106004+70933-008667FM-12+0009ENJA V0200601N01131004201CN0150001N1+00171-00101099621ADDAA199999929AG10001AY161061AY221061GF108991061051004501071999KA1120N+00111MA1999999099501MD1710201+9999MW1021REMSYN017 333 20011 91132;
0087010010999991995012109004+70933-008667FM-12+0009ENJA V0200601N01231002101CN0060001N1+00131-00131099461ADDAG12001AY171031AY221031GF108991081061002501999999MA1999999099341MD1710161+9999MW1681
0138010010999991995012112004+70933-008667FM-12+0009ENJA V0200201N01131002101CN0050001N1+00041-00131099321ADDAA106999929AG10001AY171061AY221061GF108991081061002501999999MA1999999099201MD1710141+9999MW1681SA1+0069REMSYN023 222// 00006 333 91135;
0087010010999991995012115004+70933-008667FM-12+0009ENJA V0200101N01441006001CN0050001N1+00041-00131099111ADDAG12001AY181031AY271031GF108991051081002501071999MA1999999098991MD1710211+9999MW1851
0137010010999991995012118004+70933-008667FM-12+0009ENJA V0203601N00821024001CN0200001N1+00041-00061098861ADDAA199000191AG10001AY181061AY271061GF105991031051008001071999KA1120M+00191MA1999999098741MD1710251+9999MW1261REMSYN017 333 10019 91140;
0103010010999991995012121004+70933-008667FM-12+0009ENJA V0201401N00621000301CN0004001N1+00031-00051099181ADDAG12000AY141031AY221031GA1091+999999999GF109991091999999999999999MA1999999099061MD1310321+9999MW1431
0118010010999991995012200004+70933-008667FM-12+0009ENJA V0201001N00671004201CN0150001N1+00071-00021099481ADDAA106000091AG14000AY141061AY221061GF108991081051004501999999MA1999999099371MD1210311+9999MW1021REMSYN011 333 91118;
0065010010999991995012203004+70933-008667FM-12+0009ENJA V0200801N00361004201CN0150001N1+00141+00051099721ADDAG12000GF108991081051004501999999MA1999999099601MD1210231+9999
0115010010999991995012206004+70933-008667FM-12+0009ENJA V0209991V00151024001CN0150001N1+00081-00021099841ADDAA106000091AG14000GF106991021051004501041021KA1120N+00011MA1999999099721MD1210121+9999REMSYN017 333 20001 91115;
0065010010999991995012209004+70933-008667FM-12+0009ENJA V0200701N00511220001CN0200001N1+00191+00011099971ADDAG12000GF104991031091004501061021MA1999999099851MD1210121+9999
0138010010999991995012212004+70933-008667FM-12+0009ENJA V0200101N00511009001CN0150001N1+00261+00031100071ADDAA106999929AG10001AY181061AY221061GF107991061081004501071999MA1999999099951MD1210101+9999MW1251SA1+0049REMSYN023 222// 00004 333 91117;
0087010010999991995012215004+70933-008667FM-12+0009ENJA V0203601N00411009001CN0150001N1+00211+00031100061ADDAG12001AY181031AY221031GF107991051081004501071999MA1999999099941MD1810011+9999MW1801
0137010010999991995012218004+70933-008667FM-12+0009ENJA V0203601N00871009001CN0250001N1+00031-00161100111ADDAA199999929AG10001AY181061AY221061GF106991051081004501071999KA1120M+00281MA1999999099991MD1210051+9999MW1021REMSYN017 333 10028 91122;
0065010010999991995012221004+70933-008667FM-12+0009ENJA V0203601N01181009001CN0150001N1+00001-00111100171ADDAG12000GF108991071081004501071999MA1999999100051MD1210061+9999
0096010010999991995012300004+70933-008667FM-12+0009ENJA V0203601N01391009001CN0200001N1-00071-00181100181ADDAA106000091AG14000GF108991081081004501999999MA1999999100061MD1210011+9999REMSYN011 333 91133;
0065010010999991995012303004+70933-008667FM-12+0009ENJA V0203501N01181009001CN0150001N1-00131-00241100171ADDAG12000GF107991071081004501999999MA1999999100051MD1710011+9999
0137010010999991995012306004+70933-008667FM-12+0009ENJA V0203501N01181009001CN0120001N1-00141-00261100151ADDAA106000091AG14000AY131061AY221061GF107991061081004501061999KA1120N-00161MA1999999100031MD1710021+9999MW1361REMSYN017 333 21016 91133;
0087010010999991995012309004+70933-008667FM-12+0009ENJA V0203401N01181009001CN0100001N1-00131-00271100121ADDAG12001AY181031AY231031GF107991061081004501061999MA1999999100001MD1710031+9999MW1851
0138010010999991995012312004+70933-008667FM-12+0009ENJA V0203501N01341006001CN0080001N1-00151-00291100051ADDAA106999929AG10001AY181061AY231061GF107991051081001501071011MA1999999099931MD1710071+9999MW1021SA1+0029REMSYN023 222// 00002 333 91133;
0087010010999991995012315004+70933-008667FM-12+0009ENJA V0203401N01341009001CN0020001N1-00161-00321100041ADDAG12001AY181031AY231031GF107991061081004501071999MA1999999099921MD1710011+9999MW1851
0137010010999991995012318004+70933-008667FM-12+0009ENJA V0203301N01181009001CN0030001N1-00161-00301099981ADDAA199999929AG10001AY181061AY231061GF106991051081004501071999KA1120M-00111MA1999999099861MD1710061+9999MW1381REMSYN017 333 11011 91135;
0087010010999991995012321004+70933-008667FM-12+0009ENJA V0203501N00821220001CN0200001N1-00091-00271099981ADDAG12000AY131031AY211031GF104991031081004501061001MA1999999099861MD1410001+9999MW1011
0118010010999991995012400004+70933-008667FM-12+0009ENJA V0203401N00671220001CN0300001N1-00201-00481100001ADDAA106000091AG14000AY131061AY211061GF102991011081004501071011MA1999999099881MD1210021+9999MW1011REMSYN011 333 91134;
0065010010999991995012403004+70933-008667FM-12+0009ENJA V0203601N01181009001CN0200001N1-00191-00501100031ADDAG12000GF108991051081004501071999MA1999999099911MD1210031+9999
0115010010999991995012406004+70933-008667FM-12+0009ENJA V0203601N01441009001CN0200001N1-00211-00541100041ADDAA106000091AG14000GF107991061081004501071999KA1120N-00241MA1999999099921MD1210011+9999REMSYN017 333 21024 91136;
0065010010999991995012409004+70933-008667FM-12+0009ENJA V0200201N01031009001CN0200001N1-00191-00521100051ADDAG12000GF107991071081004501999999MA1999999099931MD1210011+9999
0138010010999991995012412004+70933-008667FM-12+0009ENJA V0200201N01181009001CN0200001N1-00181-00651100041ADDAA106000091AG14000AY121061AY221061GF107991061081004501071999MA1999999099921MD1710011+9999MW1151SA1+0009REMSYN023 222// 00000 333 91134;
0087010010999991995012415004+70933-008667FM-12+0009ENJA V0200101N01491009001CN0150001N1-00251-00671100001ADDAG12000AY131031AY221031GF107991061081004501061999MA1999999099881MD1710041+9999MW1381
0137010010999991995012418004+70933-008667FM-12+0009ENJA V0203601N01441009001CN0150001N1-00361-00921100041ADDAA199999929AG10001AY181061AY231061GF107991071081004501999999KA1120M-00141MA1999999099921MD1210041+9999MW1361REMSYN017 333 11014 91138;
0087010010999991995012421004+70933-008667FM-12+0009ENJA V0203601N01391009001CN0150001N1-00471-00911100041ADDAG12001AY181031AY231031GF108991071081004501999999MA1999999099921MD1410001+9999MW1261
0134010010999991995012500004+70933-008667FM-12+0009ENJA V0203501N01491000601CN0010001N1-00411-00691099981ADDAA106999929AG10001AY181061AY231061GA1091+999999999GF109991091999999999999999MA1999999099861MD1710061+9999MW1851REMSYN011 333 91143;
0087010010999991995012503004+70933-008667FM-12+0009ENJA V0203501N01291009001CN0017001N1-00321-00541099961ADDAG12001AY181031AY231031GF108991081081004501999999MA1999999099841MD1710021+9999MW1851
0137010010999991995012506004+70933-008667FM-12+0009ENJA V0203601N01591009001CN0070001N1-00331-00611099971ADDAA199000191AG10001AY181061AY231061GF108991081081004501999999KA1120N-00501MA1999999099851MD1210011+9999MW1851REMSYN017 333 21050 91142;
0087010010999991995012509004+70933-008667FM-12+0009ENJA V0203601N01441006001CN0030001N1-00381-00631100021ADDAG12001AY181031AY231031GF108991081081002501999999MA1999999099901MD1210051+9999MW1851
0138010010999991995012512004+70933-008667FM-12+0009ENJA V0203601N01391009001CN0060001N1-00341-00671100051ADDAA106000191AG10001AY181061AY231061GF107991061081004501071999MA1999999099931MD1210031+9999MW1361SA1-0049REMSYN023 222// 01004 333 91139;
0087010010999991995012515004+70933-008667FM-12+0009ENJA V0203601N01291009001CN0100001N1-00311-00641100051ADDAG12001AY181031AY231031GF107991061081004501061999MA1999999099931MD1410001+9999MW1361
0137010010999991995012518004+70933-008667FM-12+0009ENJA V0200101N01231009001CN0100001N1-00321-00661100151ADDAA199000391AG10001AY181061AY231061GF108991081081004501999999KA1120M-00251MA1999999100031MD1310101+9999MW1851REMSYN017 333 11025 91138;
0087010010999991995012521004+70933-008667FM-12+0009ENJA V0200201N01231024001CN0300001N1-00331-00761100231ADDAG12001AY181031AY231031GF108991041081008001071999MA1999999100111MD1210081+9999MW1851
0118010010999991995012600004+70933-008667FM-12+0009ENJA V0200201N01031012001CN0250001N1-00341-00811100311ADDAA106999929AG10001AY181061AY231061GF105991051081008001001001MA1999999100191MD1210081+9999MW1851REMSYN011 333 91133;
0103010010999991995012603004+70933-008667FM-12+0009ENJA V0200201N00981000301CN0002001N1-00401-00791100381ADDAG12001AY181031AY231031GA1091+999999999GF109991091999999999999999MA1999999100261MD1210071+9999MW1881
0137010010999991995012606004+70933-008667FM-12+0009ENJA V0203601N012910120019N0050001N1-00451-00821100521ADDAA199000391AG10001AY181061AY231061GF106991061081008001001001KA1120N-00531MA1999999100401MD1210141+9999MW1381REMSYN017 333 21053 91135;
0087010010999991995012609004+70933-008667FM-12+0009ENJA V0200301N007210240019N0500001N1-00471-01191100551ADDAG12000AY131031AY221031GF106991041081008001031021MA1999999100431MD1210031+9999MW1021
0138010010999991995012612004+70933-008667FM-12+0009ENJA V0200301N00821009001CN0200001N1-00501-01221100651ADDAA106000091AG14000AY131061AY221061GF106991051081004501001021MA1999999100531MD1210101+9999MW1151SA1-0079REMSYN023 222// 01007 333 91130;
0087010010999991995012615004+70933-008667FM-12+0009ENJA V0200301N00821009001CN0200001N1-00521-01191100741ADDAG12000AY121031AY221031GF106991051081004501041011MA1999999100621MD1210091+9999MW1161
0137010010999991995012618004+70933-008667FM-12+0009ENJA V0200101N00771004201CN0020001N1-00611-01071100791ADDAA199999929AG10001AY181061AY221061GF105991051091004501001001KA1120M-00421MA1999999100671MD1210051+9999MW1881REMSYN017 333 11042 91127;
0087010010999991995012621004+70933-008667FM-12+0009ENJA V0200201N00981220001CN0250001N1-00611-01031100891ADDAG12001AY181031AY211031GF102991021091004501001001MA1999999100771MD1210101+9999MW1361
0118010010999991995012700004+70933-008667FM-12+0009ENJA V0200201N01181009001CN0080001N1-00631-01051100961ADDAA106000191AG10001AY181061AY231061GF106991051081004501061001MA1999999100841MD1210071+9999MW1381REMSYN011 333 91132;
0103010010999991995012703004+70933-008667FM-12+0009ENJA V0200201N00931002401CN0025001N1-00621-01251101091ADDAG12001AY181031AY231031GA1091+999999999GF109991091999999999999999MA1999999100971MD1210131+9999MW1851
0137010010999991995012706004+70933-008667FM-12+0009ENJA V0200201N00931220001CN0250001N1-00581-01211101091ADDAA199000191AG10001AY181061AY231061GF104991041081008001001001KA1120N-00701MA1999999100971MD1410001+9999MW1011REMSYN017 333 21070 91131;
0065010010999991995012709004+70933-008667FM-12+0009ENJA V0200201N00821220001CN0300001N1-00631-01351101131ADDAG12000GF106991041081008001001011MA1999999101011MD1210041+9999
0138010010999991995012712004+70933-008667FM-12+0009ENJA V0203601N00621060001CN0300001N1-00641-01261101091ADDAA106000091AG14000AY121061AY221061GF106991041091008001001081MA1999999100971MD1810041+9999MW1151SA1-0119REMSYN023 222// 01011 333 91126;
0087010010999991995012715004+70933-008667FM-12+0009ENJA V0200201N00621060001CN0150001N1-00641-01101101071ADDAG12001AY181031AY221031GF106991041091008001001081MA1999999100951MD1710021+9999MW1851
0137010010999991995012718004+70933-008667FM-12+0009ENJA V0203401N00211007501CN0200001N1-00741-01191101011ADDAA199000191AG10001AY181061AY221061GF106991051091008001001081KA1120M-00581MA1999999100891MD1810061+9999MW1161REMSYN017 333 11058 91120;
0065010010999991995012721004+70933-008667FM-12+0009ENJA V0203501N00211220001CN0300001N1-00811-01301100951ADDAG12000GF101991011051008001001001MA1999999100831MD1710061+9999
0118010010999991995012800004+70933-008667FM-12+0009ENJA V0203501N00261220001CN0300001N1-00171-01371100921ADDAA106000191AG10001AY181061AY211061GF103991031081004501001001MA1999999100801MD1710031+9999MW1261REMSYN011 333 91111;
0137010010999991995012803004+70933-008667FM-12+0009ENJA V0200201N00931220001CN0250001N1-00581-01211101091ADDAA199000191AG10001AY181031AY231031GF104991041081008001001001KA1120N-00701MA1999999100971MD1410001+9999MW1011REMSYN017 333 21070 91131;
0137010010999991995012806004+70933-008667FM-12+0009ENJA V0203401N00511009001CN0200001N1-00721-01291100811ADDAA199000191AG10001AY181061AY211061GF107991071081004501999999KA1120N-00851MA1999999100691MD1710071+9999MW1151REMSYN017 333 21085 91117;
0087010010999991995012809004+70933-008667FM-12+0009ENJA V0200801N00461009001CN0200001N1-00711-01281100851ADDAG12000AY121031AY221031GF107991071081004501999999MA1999999100731MD1210041+9999MW1151
0138010010999991995012812004+70933-008667FM-12+0009ENJA V0209991V00101220001CN0300001N1-00881-01511100841ADDAA106000091AG14000AY111061AY211061GF104991031081004501001021MA1999999100721MD1710011+9999MW1151SA1-0079REMSYN023 222// 01007 333 91116;
0087010010999991995012815004+70933-008667FM-12+0009ENJA V0200201N00151220001CN0300001N1-00931-01551100821ADDAG12000AY101031AY201031GF103991021031004501061021MA1999999100701MD1710021+9999MW1151
0137010010999991995012818004+70933-008667FM-12+0009ENJA V0209991V00101009001CN0300001N1-00901-01521100811ADDAA106000091AG15000AY111061AY211061GF106991051081004501061999KA1120M-00681MA1999999100691MD1710011+9999MW1151REMSYN017 333 11068 91111;
0076010010999991995012819004+70933-008667FM-12+0009ENJA V0209991V00101024001CN0300001N1+99999+99999100811ADDAA106000091AG14999GF106991011051004501011011MA1999999100691MD1710011+9999
0065010010999991995012821004+70933-008667FM-12+0009ENJA V0201401N00411220001CN0300001N1-00631-01481100771ADDAG12000GF103991021081004501061021MA1999999100651MD1710041+9999
0096010010999991995012900004+70933-008667FM-12+0009ENJA V0201701N00621220001CN0300001N1-00581-01471100711ADDAA106000091AG14000GF103991021081004501071021MA1999999100591MD1710061+9999REMSYN011 333 91115;
0065010010999991995012903004+70933-008667FM-12+0009ENJA V0201801N00771024001CN0300001N1-00521-01391100621ADDAG12000GF106991041081004501071999MA1999999100501MD1710091+9999
0115010010999991995012906004+70933-008667FM-12+0009ENJA V0201701N00931024001CN0300001N1-00481-01361100521ADDAA106000091AG14000GF105991031081004501071021KA1120N-00901MA1999999100401MD1710101+9999REMSYN017 333 21090 91122;
0065010010999991995012909004+70933-008667FM-12+0009ENJA V0201701N01181004201CN0300001N1-00421-01351100401ADDAG12000GF106991051051004501071999MA1999999100281MD1710121+9999
0116010010999991995012912004+70933-008667FM-12+0009ENJA V0201701N01341012001CN0300001N1-00331-01171100231ADDAA106000091AG14000GF106991051081008001071999MA1999999100111MD1710171+9999SA1-0059REMSYN023 222// 01005 333 91136;
0087010010999991995012915004+70933-008667FM-12+0009ENJA V0201701N01541009001CN0250001N1-00361-00941100111ADDAG12001AY181031AY221031GF107991051081004501071999MA1999999099991MD1710121+9999MW1151
0137010010999991995012918004+70933-008667FM-12+0009ENJA V0201701N01491009001CN0050001N1-00331-00721099881ADDAA199000191AG10001AY181061AY221061GF107991061081004501071999KA1120M-00281MA1999999099761MD1710231+9999MW1851REMSYN017 333 11028 91138;
0103010010999991995012921004+70933-008667FM-12+0009ENJA V0201701N01751000301CN0004001N1-00381-00631099571ADDAG12001AY181031AY231031GA1091+999999999GF109991091999999999999999MA1999999099451MD1710311+9999MW1861
0134010010999991995013000004+70933-008667FM-12+0009ENJA V0201501N01801000601CN0006001N1-00291-00461099061ADDAA106000591AG10001AY181061AY271061GA1091+999999999GF109991091999999999999999MA1999999098941MD1710511+9999MW1701REMSYN011 333 91148;
0123010010999991995013003004+70933-008667FM-12+0009ENJA V0201801N02001007501CN0150001N1-00371-00441999999ADDAG12001AY171031AY231031GF107991071051008001999999MD1710892+9999MW1361EQDQ01+098053APOSP Q02+098173APOSLPQ03+000892APC3  
0156010010999991995013006004+70933-008667FM-12+0009ENJA V0202501N01081024001CN0020001N1-01031-01161098911ADDAA199002091AG10001AY181061AY271061GF106991041081008001071999KA1120N-01031MA1999999098791MD1310742+9999MW1851REMSYN017 333 21103 91161;EQDQ01+000742APC3  
0087010010999991995013009004+70933-008667FM-12+0009ENJA V0202301N01031009001CN0100001N1-01211-01441098951ADDAG12001AY181031AY231031GF107991061081004501061999MA1999999098831MD1210041+9999MW1261
0138010010999991995013012004+70933-008667FM-12+0009ENJA V0202301N00821009001CN0020001N1-01211-01441098821ADDAA106000591AG10001AY181061AY231061GF107991061081004501061999MA1999999098701MD1810131+9999MW1851SA1-0049REMSYN023 222// 01004 333 91128;
0087010010999991995013015004+70933-008667FM-12+0009ENJA V0202101N00771009001CN0100001N1-01141-01411098541ADDAG12001AY181031AY231031GF107991061081004501071011MA1999999098421MD1710281+9999MW1161
0137010010999991995013018004+70933-008667FM-12+0009ENJA V0202301N00931004201CN0150001N1-01071-01401098201ADDAA199000591AG10001AY181061AY271061GF107991071051004501001001KA1120M-01031MA1999999098081MD1710341+9999MW1701REMSYN017 333 11103 91126;
0087010010999991995013021004+70933-008667FM-12+0009ENJA V0202301N01341004201CN0030001N1-00991-01251097921ADDAG12001AY171031AY231031GF108991081051004501999999MA1999999097801MD1710281+9999MW1701
0118010010999991995013100004+70933-008667FM-12+0009ENJA V0202701N00821007501CN0200001N1-00591-00881097811ADDAA106999929AG10001AY171061AY231061GF108991051051008001071999MA1999999097691MD1610111+9999MW1701REMSYN011 333 91137;
0087010010999991995013103004+70933-008667FM-12+0009ENJA V0203401N00821015001CN0250001N1-00731-01231097951ADDAG12001AY171031AY221031GF108991081001017501071999MA1999999097831MD1210141+9999MW1021
0137010010999991995013106004+70933-008667FM-12+0009ENJA V0200201N009319999999N0200001N1-00691-01151097851ADDAA199999929AG10001AY171061AY221061GF108991081001012501071999KA1120N-01291MA1999999097731MD1810101+9999MW1701REMSYN017 333 21129 91129;
0103010010999991995013109004+70933-008667FM-12+0009ENJA V0200201N01751000601CN0010001N1-00571-00911097521ADDAG12001AY171031AY231031GA1091+999999999GF109991091999999999999999MA1999999097401MD1710331+9999MW1381
0138010010999991995013112004+70933-008667FM-12+0009ENJA V0200201N02001004201CN0040001N1-00601-01061097401ADDAA106999929AG10001AY171061AY231061GF108991071051004501071999MA1999999097281MD1610121+9999MW1361SA1-0099REMSYN023 222// 01009 333 91156;
0087010010999991995013115004+70933-008667FM-12+0009ENJA V0200201N01951004201CN0005001N1-00691-01131097341ADDAG12000AY131031AY221031GF108991071051004501071999MA1999999097221MD1710061+9999MW1361
0137010010999991995013118004+70933-008667FM-12+0009ENJA V0203601N01751004201CN0035001N1-00791-01201097521ADDAA199999929AG10001AY181061AY231061GF108991061051004501071999KA1120M-00571MA1999999097401MD1310181+9999MW1361REMSYN017 333 11057 91155;
0087010010999991995013121004+70933-008667FM-12+0009ENJA V0203601N01491007501CN0100001N1-00831-01401097701ADDAG12001AY181031AY231031GF108991061051008001071999MA1999999097581MD1210181+9999MW1851
0118010010999991995020100004+70933-008667FM-12+0009ENJA V0203501N01391004201CN0150001N1-00911-01421097821ADDAA106999929AG10001AY181061AY231061GF107991071051004501999999MA1999999097701MD1210121+9999MW1361REMSYN011 333 91148;
0087010010999991995020103004+70933-008667FM-12+0009ENJA V0203601N01181007501CN0250001N1-00931-01601098071ADDAG12000AY131031AY221031GF106991061051008001999999MA1999999097951MD1210251+9999MW1021
0137010010999991995020106004+70933-008667FM-12+0009ENJA V0203401N00871009001CN0080001N1-00971-01701098281ADDAA199999929AG10001AY181061AY231061GF107991071081004501999999KA1120N-01031MA1999999098161MD1210211+9999MW1851REMSYN017 333 21103 91137;
0087010010999991995020109004+70933-008667FM-12+0009ENJA V0203401N00931009001CN0018001N1-01031-01661098531ADDAG12001AY181031AY231031GF107991071081004501999999MA1999999098411MD1210251+9999MW1861
0138010010999991995020112004+70933-008667FM-12+0009ENJA V0203401N00981007501CN0020001N1-01061-01611098811ADDAA106000191AG10001AY181061AY231061GF106991061091008001999999MA1999999098691MD1210281+9999MW1851SA1-0089REMSYN023 222// 01008 333 91133;
0087010010999991995020115004+70933-008667FM-12+0009ENJA V0203401N00981007501CN0006001N1-01111-01781099081ADDAG12001AY181031AY231031GF107991071091008001999999MA1999999098961MD1210271+9999MW1861
0137010010999991995020118004+70933-008667FM-12+0009ENJA V0203401N00821004201CN0100001N1-01101-01731099311ADDAA199000391AG10001AY181061AY231061GF106991061091004501001001KA1120M-00961MA1999999099191MD1210231+9999MW1151REMSYN017 333 11096 91129;
0065010010999991995020121004+70933-008667FM-12+0009ENJA V0203001N00511012001CN0250001N1-01091-01781099501ADDAG12000GF105991051081008001001001MA1999999099381MD1210191+9999
0118010010999991995020200004+70933-008667FM-12+0009ENJA V0202901N00361009001CN0200001N1-01121-01761099681ADDAA106999929AG10001AY181061AY221061GF107991071081004501999999MA1999999099561MD1210181+9999MW1261REMSYN011 333 91124;
0087010010999991995020203004+70933-008667FM-12+0009ENJA V0203301N00461009001CN0200001N1-01171-01871099821ADDAG12001AY181031AY221031GF105991051081004501001001MA1999999099701MD1210141+9999MW1151
0137010010999991995020206004+70933-008667FM-12+0009ENJA V0203301N00511009001CN0180001N1-01161-01941099961ADDAA199999929AG10001AY181061AY221061GF108991081081004501999999KA1120N-01201MA1999999099841MD1210141+9999MW1851REMSYN017 333 21120 91121;
0087010010999991995020209004+70933-008667FM-12+0009ENJA V0203601N00411012001CN0300001N1-01141-01931100111ADDAG12001AY181031AY221031GF106991061081008001001001MA1999999099991MD1210151+9999MW1021
0138010010999991995020212004+70933-008667FM-12+0009ENJA V0209991V00261004201CN0300001N1-01091-01891100281ADDAA106999929AG10001AY181061AY221061GF107991061091004501061001MA1999999100161MD1210171+9999MW1151SA1-0099REMSYN023 222// 01009 333 91121;
0065010010999991995020215004+70933-008667FM-12+0009ENJA V0203401N00261024001CN0400001N1-01111-01861100361ADDAG12000GF105991041051008001041001MA1999999100241MD1110081+9999
0115010010999991995020218004+70933-008667FM-12+0009ENJA V0203501N00151024001CN0300001N1-01161-01881100321ADDAA199999929AG10000GF106991041081008001071999KA1120M-01071MA1999999100201MD1710041+9999REMSYN017 333 11107 91117;
0065010010999991995020221004+70933-008667FM-12+0009ENJA V0201001N00511007501CN0250001N1-00871-01631100191ADDAG12000GF107991061051008001071999MA1999999100071MD1710131+9999
0096010010999991995020300004+70933-008667FM-12+0009ENJA V0201001N01031007501CN0250001N1-00711-01231099871ADDAA106000091AG14000GF108991061051008001071999MA1999999099751MD1710321+9999REMSYN011 333 91123;
0087010010999991995020303004+70933-008667FM-12+0009ENJA V0200901N01131004201CN0030001N1-00591-00801099481ADDAG12001AY171031AY231031GF108991081051004501999999MA1999999099361MD1710391+9999MW1711
0153010010999991995020306004+70933-008667FM-12+0009ENJA V0200801N01441000301CN0004001N1-00521-00621098981ADDAA199000591AG10001AY171061AY231061GA1091+999999999GF109991091999999999999999KA1120N-01161MA1999999098861MD1710501+9999MW1731REMSYN017 333 21116 91135;
0103010010999991995020309004+70933-008667FM-12+0009ENJA V0200701N01491000601CN0009001N1-00461-00541098531ADDAG12001AY171031AY231031GA1091+999999999GF109991091999999999999999MA1999999098411MD1710451+9999MW1731
0154010010999991995020312004+70933-008667FM-12+0009ENJA V0200601N01541000301CN0004001N1-00341-00421098121ADDAA106000591AG10001AY171061AY231061GA1091+999999999GF109991091999999999999999MA1999999098001MD1710411+9999MW1731SA1-0109REMSYN023 222// 01010 333 91143;
0103010010999991995020315004+70933-008667FM-12+0009ENJA V0200601N01441000601CN0006001N1-00281-00361097901ADDAG12001AY171031AY231031GA1091+999999999GF109991091999999999999999MA1999999097781MD1710221+9999MW1731
0137010010999991995020318004+70933-008667FM-12+0009ENJA V0200701N01131002101CN0030001N1-00331-00411097981ADDAA199001091AG10001AY171061AY231061GF108991081051002501999999KA1120M-00261MA1999999097861MD1310081+9999MW1731REMSYN017 333 11026 91141;
0087010010999991995020321004+70933-008667FM-12+0009ENJA V0200601N01851002101CN0030001N1-00371-00471098031ADDAG12001AY171031AY231031GF108991081051002501999999MA1999999097911MD1210051+9999MW1731
0118010010999991995020400004+70933-008667FM-12+0009ENJA V0200701N00571012001CN0400001N1-00331-00581098141ADDAA106000191AG10001AY181061AY271061GF107991061081008001071999MA1999999098021MD1210111+9999MW1361REMSYN011 333 91146;
0087010010999991995020403004+70933-008667FM-12+0009ENJA V0200901N01441220001CN0200001N1-00431-00801098461ADDAG12001AY181031AY231031GF103991021081008001031001MA1999999098341MD1210321+9999MW1361
0137010010999991995020406004+70933-008667FM-12+0009ENJA V0201001N01031220001CN0500001N1-00481-00921098731ADDAA199000191AG10001AY181061AY231061GF102991021051008001001001KA1120N-00501MA1999999098611MD1210271+9999MW1011REMSYN017 333 21050 91146;
0065010010999991995020409004+70933-008667FM-12+0009ENJA V0200601N00411024001CN0150001N1-00481-00981099151ADDAG12000GF105991031051008001071011MA1999999099031MD1210421+9999
0116010010999991995020412004+70933-008667FM-12+0009ENJA V0201001N01181220001CN0150001N1-00501-00961099431ADDAA106000091AG14000GF104991031051008001071011MA1999999099311MD1210281+9999SA1-0059REMSYN023 222// 01005 333 91137;
0087010010999991995020415004+70933-008667FM-12+0009ENJA V0200901N00821009001CN0150001N1-00481-01001099701ADDAG12001AY181031AY221031GF107991061081004501071999MA1999999099581MD1210271+9999MW1851
0137010010999991995020418004+70933-008667FM-12+0009ENJA V0200901N00821009001CN0150001N1-00431-00861099701ADDAA199999929AG10001AY181061AY221061GF107991061081004501071999KA1120M-00421MA1999999099581MD1410001+9999MW1851REMSYN017 333 11042 91129;
0087010010999991995020421004+70933-008667FM-12+0009ENJA V0200901N01031004201CN0025001N1-00401-00611099631ADDAG12001AY181031AY271031GF108991081061004501999999MA1999999099511MD1710071+9999MW1701
0167010010999991995020500004+70933-008667FM-12+0009ENJA V0201001N01031027001CN0006001N1-00221-00301099381ADDAA106000191AG10001AY181061AY271061GA1011+006009059GA2051+027009039GF109991091999999999999999MA1999999099261MW1731REMSYN023 333 81620 85359 91109;EQDQ01+999990APOSLP
0103010010999991995020503004+70933-008667FM-12+0009ENJA V0201501N00621000301CN0005001N1-00151-00221099041ADDAG12001AY171031AY271031GA1091+999999999GF109991091999999999999999MA1999999098921MD1710341+9999MW1731
0137010010999991995020506004+70933-008667FM-12+0009ENJA V0209991C00001220001CN0100001N1-00351-00401098771ADDAA199004091AG10001AY171061AY211061GF101991011051008001001001KA1120N-00531MA1999999098651MD1610271+9999MW1101REMSYN017 333 21053 91126;
0087010010999991995020509004+70933-008667FM-12+0009ENJA V0209991V00151024001CN0060001N1-00441-00491098551ADDAG12000AY121031AY221031GF107991011061004501071021MA1999999098431MD1710221+9999MW1161
0138010010999991995020512004+70933-008667FM-12+0009ENJA V0203501N00211024001CN0080001N1-00401-00451098271ADDAA106000091AG14000AY121061AY221061GF107991011051008001071021MA1999999098151MD1710281+9999MW1101SA1-0049REMSYN023 222// 01004 333 91105;
0087010010999991995020515004+70933-008667FM-12+0009ENJA V0203001N00821024001CN0300001N1-00191-00411097861ADDAG12000AY131031AY221031GF106991021061004501071011MA1999999097741MD1710411+9999MW1361
0137010010999991995020518004+70933-008667FM-12+0009ENJA V0203301N00211024001CN0300001N1-00271-00491097751ADDAA106000091AG10000AY131061AY221061GF108991011061004501071061KA1120M-00181MA1999999097631MD1610111+9999MW1031REMSYN017 333 11018 91124;
0065010010999991995020521004+70933-008667FM-12+0009ENJA V0200101N00621024001CN0300001N1-00191-00491097791ADDAG12000GF108991061001999999071061MA1999999097671MD1310041+9999
0118010010999991995020600004+70933-008667FM-12+0009ENJA V0200101N00621024001CN0150001N1-00231-00651098031ADDAA106999929AG10001AY171061AY221061GF108991021051008001021999MA1999999097911MD1210241+9999MW1151REMSYN011 333 91134;
0103010010999991995020603004+70933-008667FM-12+0009ENJA V0203601N01951000301CN0002001N1-00541-00701098381ADDAG12001AY171031AY231031GA1091+999999999GF109991091999999999999999MA1999999098261MD1210351+9999MW1731
0153010010999991995020606004+70933-008667FM-12+0009ENJA V0200101N01541000301CN0002001N1-00651-00741098821ADDAA199002091AG10001AY171061AY231061GA1091+999999999GF109991091999999999999999KA1120N-00681MA1999999098701MD1210441+9999MW1731REMSYN017 333 21068 91152;
0103010010999991995020609004+70933-008667FM-12+0009ENJA V0200201N01341000151CN0001001N1-00781-00871099131ADDAG12001AY171031AY231031GA1091+999999999GF109991091999999999999999MA1999999099011MD1210311+9999MW1731
0138010010999991995020612004+70933-008667FM-12+0009ENJA V0203601N01231004201CN0001001N1-00881-01131099421ADDAA106000591AG10001AY181061AY271061GF107991071091004501999999MA1999999099301MD1210291+9999MW1861SA1-0089REMSYN023 222// 01008 333 91145;
0087010010999991995020615004+70933-008667FM-12+0009ENJA V0203601N01181004201CN0010001N1-00901-01231099561ADDAG12001AY181031AY231031GF107991051091004501061999MA1999999099441MD1210141+9999MW1851
0137010010999991995020618004+70933-008667FM-12+0009ENJA V0203601N01181009001CN0150001N1-00891-01381099721ADDAA199001091AG10001AY181061AY231061GF107991051081004501061999KA1120M-00641MA1999999099601MD1210161+9999MW1361REMSYN017 333 11064 91132;
0087010010999991995020621004+70933-008667FM-12+0009ENJA V0203301N00871009001CN0100001N1-00841-01271099901ADDAG12001AY181031AY231031GF107991071081004501999999MA1999999099781MD1210181+9999MW1361
0118010010999991995020700004+70933-008667FM-12+0009ENJA V0203601N010310090019N0100001N1-00861-01351100041ADDAA106000191AG10001AY181061AY231061GF107991071081004501999999MA1999999099921MD1210141+9999MW1381REMSYN011 333 91131;
0087010010999991995020703004+70933-008667FM-12+0009ENJA V0203501N01131009001CN0060001N1-00961-01371100241ADDAG12001AY181031AY231031GF107991071081004501999999MA1999999100121MD1210201+9999MW1381
0137010010999991995020706004+70933-008667FM-12+0009ENJA V0203501N00981006001CN0020001N1-00931-01311100291ADDAA199000191AG10001AY181061AY231061GF107991071081002501999999KA1120N-01011MA1999999100171MD1210051+9999MW1851REMSYN017 333 21101 91136;
0103010010999991995020709004+70933-008667FM-12+0009ENJA V0203501N01441000301CN0005001N1-01011-01301100411ADDAG12001AY181031AY231031GA1091+999999999GF109991091999999999999999MA1999999100291MD1210121+9999MW1851
0154010010999991995020712004+70933-008667FM-12+0009ENJA V0203401N01751000301CN0002001N1-01001-01281100411ADDAA106001091AG10001AY181061AY231061GA1091+999999999GF109991091999999999999999MA1999999100291MD1410001+9999MW1851SA1-0149REMSYN023 222// 01014 333 91158;
0143010010999991995020715004+70933-008667FM-12+0009ENJA V0203401N01751000301CN0002001N1-01001-01281100411ADDAG12001AY181031AY231031GA1091+999999999GF109991091999999999999999MA1999999100291MD1410001+9999MW1851SA1-0149REMSYN023 222// 01014 333 91158;
0153010010999991995020718004+70933-008667FM-12+0009ENJA V0203401N01131000601CN0008001N1-00871-01181100561ADDAA199002091AG10001AY181061AY231061GA1091+999999999GF109991091999999999999999KA1120M-00841MA1999999100441MD1210061+9999MW1861REMSYN017 333 11084 91152;
0087010010999991995020721004+70933-008667FM-12+0009ENJA V0203401N01441006001CN0020001N1-00851-01291100531ADDAG12001AY181031AY231031GF108991081081002501999999MA1999999100411MD1710031+9999MW1381
0134010010999991995020800004+70933-008667FM-12+0009ENJA V0203401N01341000301CN0002001N1-00931-01311100481ADDAA106000191AG10001AY181061AY231061GA1091+999999999GF109991091999999999999999MA1999999100361MD1710051+9999MW1861REMSYN011 333 91148;
0087010010999991995020803004+70933-008667FM-12+0009ENJA V0203601N01391006001CN0020001N1-00891-01211100351ADDAG12001AY181031AY231031GF108991081081002501999999MA1999999100231MD1710131+9999MW1851
0137010010999991995020806004+70933-008667FM-12+0009ENJA V0203401N013910060019N0020001N1-00821-01131100191ADDAA199001091AG10001AY181061AY231061GF108991081081002501999999KA1120N-00961MA1999999100071MD1710161+9999MW1851REMSYN017 333 21096 91155;
0087010010999991995020809004+70933-008667FM-12+0009ENJA V0203401N01231006001CN0025001N1-00801-01201100171ADDAG12001AY181031AY231031GF108991081081002501999999MA1999999100051MD1710021+9999MW1381
0138010010999991995020812004+70933-008667FM-12+0009ENJA V0203401N01341006001CN0010001N1-00761-01071100121ADDAA106000191AG10001AY181061AY231061GF108991081081002501999999MA1999999100001MD1710051+9999MW1851SA1-0139REMSYN023 222// 01013 333 91146;
0087010010999991995020815004+70933-008667FM-12+0009ENJA V0203401N01341002101CN0010001N1-00701-01111100231ADDAG12001AY181031AY231031GF107991071031002501999999MA1999999100111MD1310111+9999MW1851
0137010010999991995020818004+70933-008667FM-12+0009ENJA V0203401N01031006001CN0020001N1-00691-01081100331ADDAA199000391AG10001AY181061AY231061GF108991081081002501999999KA1120M-00641MA1999999100211MD1210101+9999MW1851REMSYN017 333 11064 91143;
0087010010999991995020821004+70933-008667FM-12+0009ENJA V0203401N01441009001CN0030001N1-00761-01191100301ADDAG12001AY181031AY231031GF107991071081004501999999MA1999999100181MD1710031+9999MW1361
0118010010999991995020900004+70933-008667FM-12+0009ENJA V0203501N01391024001CN0040001N1-00751-01241100281ADDAA106000191AG10001AY181061AY231061GF106991041081008001031999MA1999999100161MD1710021+9999MW1851REMSYN011 333 91147;
0103010010999991995020903004+70933-008667FM-12+0009ENJA V0203501N01491000601CN0008001N1-00821-01181100251ADDAG12001AY181031AY231031GA1091+999999999GF109991091999999999999999MA1999999100131MD1710031+9999MW1851
0153010010999991995020906004+70933-008667FM-12+0009ENJA V0203501N01291000601CN0010001N1-00841-01201100231ADDAA199000591AG10001AY181061AY231061GA1091+999999999GF109991091999999999999999KA1120N-00871MA1999999100111MD1710021+9999MW1861REMSYN017 333 21087 91146;
0087010010999991995020909004+70933-008667FM-12+0009ENJA V0203401N01181009001CN0060001N1-00731-01171100191ADDAG12001AY181031AY231031GF107991061081004501061999MA1999999100071MD1710041+9999MW1361
0138010010999991995020912004+70933-008667FM-12+0009ENJA V0203401N00931009001CN0020001N1-00811-01231100181ADDAA106000191AG10001AY181061AY231061GF107991061081004501061999MA1999999100061MD1710011+9999MW1851SA1-0129REMSYN023 222// 01012 333 91141;
0087010010999991995020915004+70933-008667FM-12+0009ENJA V0203401N01031009001CN0040001N1-00541-00881100221ADDAG12001AY181031AY231031GF107991061081004501061011MA1999999100101MD1210041+9999MW1851
0137010010999991995020918004+70933-008667FM-12+0009ENJA V0203501N00821009001CN0040001N1-00471-00791100301ADDAA199000391AG10001AY181061AY231061GF107991061081004501061999KA1120M-00461MA1999999100181MD1210081+9999MW1851REMSYN017 333 11046 91131;
0087010010999991995020921004+70933-008667FM-12+0009ENJA V0203501N01031009001CN0030001N1-00481-00751100331ADDAG12001AY181031AY231031GF108991061081004501061999MA1999999100211MD1210031+9999MW1851
0134010010999991995021000004+70933-008667FM-12+0009ENJA V0203501N00931000301CN0004001N1-00501-00771100391ADDAA106000191AG10001AY181061AY231061GA1091+999999999GF109991091999999999999999MA1999999100271MD1210061+9999MW1861REMSYN011 333 91133;
0087010010999991995021003004+70933-008667FM-12+0009ENJA V0203401N01181007501CN0020001N1-00521-00811100391ADDAG12001AY181031AY271031GF108991081051008001999999MA1999999100271MD1410001+9999MW1711
0137010010999991995021006004+70933-008667FM-12+0009ENJA V0203501N00871007501CN0020001N1-00481-00771100391ADDAA199000191AG10001AY181061AY271061GF108991081051008001999999KA1120N-00541MA1999999100271MD1410001+9999MW1711REMSYN017 333 21054 91131;
0087010010999991995021009004+70933-008667FM-12+0009ENJA V0203501N01231024001CN0030001N1-00641-01061100441ADDAG12001AY181031AY271031GF105991031081008001061021MA1999999100321MD1210051+9999MW1361
0138010010999991995021012004+70933-008667FM-12+0009ENJA V0203501N00981009001CN0015001N1-00691-01211100471ADDAA106000191AG10001AY181061AY271061GF107991071081004501999999MA1999999100351MD1210031+9999MW1851SA1-0119REMSYN023 222// 01011 333 91133;
0087010010999991995021015004+70933-008667FM-12+0009ENJA V0203501N01081004201CN0012001N1-00701-01031100361ADDAG12001AY181031AY231031GF107991071091004501999999MA1999999100241MD1810111+9999MW1861
0137010010999991995021018004+70933-008667FM-12+0009ENJA V0203601N01031004201CN0050001N1-00691-01171100321ADDAA199000191AG10001AY181061AY231061GF107991071091004501999999KA1120M-00451MA1999999100201MD1710041+9999MW1861REMSYN017 333 11045 91134;
0087010010999991995021021004+70933-008667FM-12+0009ENJA V0200101N01181024001CN0100001N1-00601-01021100251ADDAG12001AY181031AY231031GF107991041081008001061999MA1999999100131MD1810071+9999MW1851
0118010010999991995021100004+70933-008667FM-12+0009ENJA V0203601N00981009001CN0040001N1-00661-00961100241ADDAA106000191AG10001AY181061AY231061GF108991081081004501999999MA1999999100121MD1710011+9999MW1851REMSYN011 333 91133;
0087010010999991995021103004+70933-008667FM-12+0009ENJA V0200101N01031009001CN0150001N1-00691-01151100161ADDAG12001AY181031AY221031GF108991081081004501999999MA1999999100041MD1710081+9999MW1261
0137010010999991995021106004+70933-008667FM-12+0009ENJA V0203401N00571009001CN0200001N1-00701-01221100121ADDAA199000191AG10001AY181061AY221061GF108991081081004501999999KA1120N-00771MA1999999100001MD1710041+9999MW1151REMSYN017 333 21077 91132;
0087010010999991995021109004+70933-008667FM-12+0009ENJA V0203501N00821009001CN0100001N1-00681-01161100091ADDAG12001AY181031AY221031GF107991071081004501999999MA1999999099971MD1710031+9999MW1851
0138010010999991995021112004+70933-008667FM-12+0009ENJA V0203501N00721220001CN0150001N1-00651-01191100051ADDAA106999929AG10001AY181061AY211061GF103991031081004501041001MA1999999099931MD1710041+9999MW1151SA1-0149REMSYN023 222// 01014 333 91121;
0087010010999991995021115004+70933-008667FM-12+0009ENJA V0200101N00621220001CN0150001N1-00611-01171099971ADDAG12001AY181031AY201031GF104991041081004501001001MA1999999099851MD1710081+9999MW1851
0137010010999991995021118004+70933-008667FM-12+0009ENJA V0203601N00671009001CN0300001N1-00621-01061099971ADDAA199999929AG10001AY181061AY211061GF106991061081004501001001KA1120M-00591MA1999999099851MD1410001+9999MW1031REMSYN017 333 11059 91119;
0065010010999991995021121004+70933-008667FM-12+0009ENJA V0203601N00511220001CN0300001N1-00631-01141099911ADDAG12000GF103991031051008001001001MA1999999099791MD1710061+9999
0096010010999991995021200004+70933-008667FM-12+0009ENJA V0200101N00411012001CN0300001N1-00651-01151099891ADDAA106000091AG14000GF105991051081008001001001MA1999999099771MD1710021+9999REMSYN011 333 91116;
0065010010999991995021203004+70933-008667FM-12+0009ENJA V0203401N00461220001CN0300001N1-00701-01231099781ADDAG12000GF102991021081008001001001MA1999999099661MD1710111+9999
0115010010999991995021206004+70933-008667FM-12+0009ENJA V0203401N00211220001CN0300001N1-00751-01221099701ADDAA106000091AG14000GF101991011081008001001001KA1120N-00791MA1999999099581MD1710081+9999REMSYN017 333 21079 91112;
0065010010999991995021209004+70933-008667FM-12+0009ENJA V0202701N00311220001CN0500001N1-00871-01301099651ADDAG12000GF101991011051008001001001MA1999999099531MD1710051+9999
0096010010999991995021212004+70933-008667FM-12+0009ENJA V0203401N00101220001CN0750001N1-00631-01161099601ADDAA106000091AG14000GF101991011051008001001001MA1999999099481MD1710051+9999REMSYN011 333 91107;
0065010010999991995021215004+70933-008667FM-12+0009ENJA V0209991V00101012001CN0750001N1-00561-01101099531ADDAG12000GF105991051081008001001001MA1999999099411MD1710071+9999
0115010010999991995021218004+70933-008667FM-12+0009ENJA V0202501N00311220001CN0750001N1-00601-01041099491ADDAA106000091AG14000GF102991021081008001001001KA1120M-00401MA1999999099371MD1710041+9999REMSYN017 333 11040 91113;
0065010010999991995021221004+70933-008667FM-12+0009ENJA V0200101N00771220001CN0300001N1-00521-00961099491ADDAG12000GF102991021081008001001001MA1999999099371MD1410001+9999
0096010010999991995021300004+70933-008667FM-12+0009ENJA V0203601N00671220001CN0500001N1-00551-01081099491ADDAA106000091AG14000GF104991011051008001071001MA1999999099371MD1410001+9999REMSYN011 333 91123;
0065010010999991995021303004+70933-008667FM-12+0009ENJA V0200201N00621220001CN0500001N1-00571-01131099511ADDAG12000GF104991021051008001071021MA1999999099391MD1210021+9999
0115010010999991995021306004+70933-008667FM-12+0009ENJA V0200101N00511220001CN0500001N1-00561-01181099501ADDAA106000091AG14000GF102991011051008001071011KA1120N-00701MA1999999099381MD1710011+9999REMSYN017 333 21070 91123;
0065010010999991995021309004+70933-008667FM-12+0009ENJA V0200101N00821220001CN0600001N1-00621-01231099561ADDAG12000GF102991011081008001071001MA1999999099441MD1210061+9999
0116010010999991995021312004+70933-008667FM-12+0009ENJA V0203601N00211220001CN0750001N1-00601-01241099671ADDAA106000091AG14000GF102991011081008001051021MA1999999099551MD1210111+9999SA1-0129REMSYN023 222// 01012 333 91116;
0065010010999991995021315004+70933-008667FM-12+0009ENJA V0203601N00511024001CN0400001N1-00541-01091099721ADDAG12000GF105991031081008001071021MA1999999099601MD1210051+9999
0137010010999991995021318004+70933-008667FM-12+0009ENJA V0203601N00461024001CN0400001N1-00651-01131099831ADDAA199999929AG10001AY181061AY211061GF106991041081008001071021KA1120M-00511MA1999999099711MD1210111+9999MW1021REMSYN017 333 11051 91116;
0065010010999991995021321004+70933-008667FM-12+0009ENJA V0203401N00461220001CN0400001N1-00701-01191099911ADDAG12000GF103991021081004501071001MA1999999099791MD1210081+9999
0118010010999991995021400004+70933-008667FM-12+0009ENJA V0203501N00461024001CN0400001N1-00731-01261099961ADDAA106999929AG10001AY181061AY221061GF105991041081008001071999MA1999999099841MD1210051+9999MW1261REMSYN011 333 91116;
0065010010999991995021403004+70933-008667FM-12+0009ENJA V0203601N00571007501CN0400001N1-00741-01271099951ADDAG12000GF107991061051008001071999MA1999999099831MD1710011+9999
0115010010999991995021406004+70933-008667FM-12+0009ENJA V0203501N00211007501CN0300001N1-00721-01231099921ADDAA199999929AG10000GF107991061051008001071999KA1120N-00811MA1999999099801MD1710031+9999REMSYN017 333 21081 91116;
0065010010999991995021409004+70933-008667FM-12+0009ENJA V0201401N00311220001CN0500001N1-00641-01141099941ADDAG12000GF104991041051008001001001MA1999999099821MD1310021+9999
0119010010999991995021412004+70933-008667FM-12+0009ENJA V0200101N00311220001CN0600001N1-00481-01031099831ADDAA106000091AG14000GF102991011051008001041001MA1999999099711MD1710111+9999SA1-0149UA1I019999999REMSYN013 222// 01014;
0065010010999991995021415004+70933-008667FM-12+0009ENJA V0200801N00571024001CN0500001N1-00341-00811099731ADDAG12000GF106991031051008001071001MA1999999099611MD1710101+9999
0115010010999991995021418004+70933-008667FM-12+0009ENJA V0200701N01031220001CN0300001N1-00141-00541099631ADDAA106000091AG14000GF104991031061004501031001KA1120M-00121MA1999999099511MD1710101+9999REMSYN017 333 11012 91127;
0087010010999991995021421004+70933-008667FM-12+0009ENJA V0200601N00981024001CN0060001N1-00051-00441099491ADDAG12000AY121031AY221031GF106991041061004501071021MA1999999099371MD1710141+9999MW1101
0096010010999991995021500004+70933-008667FM-12+0009ENJA V0200701N01291007501CN0300001N1+00061-00301099391ADDAA106000091AG14000GF107991071051008001999999MA1999999099281MD1610061+9999REMSYN011 333 91132;
0065010010999991995021503004+70933-008667FM-12+0009ENJA V0200801N01231220001CN0300001N1+00061-00331099321ADDAG12000GF104991011051012501071021MA1999999099211MD1710071+9999
0115010010999991995021506004+70933-008667FM-12+0009ENJA V0200701N01131012001CN0300001N1+00101-00421099271ADDAA106000091AG14000GF106991051051012501071999KA1120N-00121MA1999999099161MD1610051+9999REMSYN017 333 21012 91133;
0087010010999991995021509004+70933-008667FM-12+0009ENJA V0200701N01341024001CN0100001N1+00011-00381099281ADDAG12000AY121031AY221031GF107991041061002501031021MA1999999099171MD1210011+9999MW1101
0138010010999991995021512004+70933-008667FM-12+0009ENJA V0200701N01031024001CN0100001N1-00051-00591099291ADDAA106000091AG14000AY121061AY221061GF107991031061002501041011MA1999999099171MD1210011+9999MW1101SA1-0059REMSYN023 222// 01005 333 91136;
0065010010999991995021515004+70933-008667FM-12+0009ENJA V0200901N01541024001CN0200001N1-00131-00661099171ADDAG12000GF106991041051004501031011MA1999999099051MD1710121+9999
0115010010999991995021518004+70933-008667FM-12+0009ENJA V0200901N00821024001CN0250001N1-00041-00501098941ADDAA106000091AG14000GF105991031051008001071021KA1120M+00101MA1999999098821MD1710231+9999REMSYN017 333 10010 91143;
0087010010999991995021521004+70933-008667FM-12+0009ENJA V0200601N01131024001CN0200001N1-00071-00511099001ADDAG12001AY181031AY221031GF108991021051008001071021MA1999999098881MD1310061+9999MW1851
0118010010999991995021600004+70933-008667FM-12+0009ENJA V0200101N01391007501CN0100001N1-00151-00471098881ADDAA106999929AG10001AY181061AY221061GF108991061051008001071999MA1999999098761MD1710121+9999MW1151REMSYN011 333 91140;
0065010010999991995021603004+70933-008667FM-12+0009ENJA V0203401N01181007501CN0200001N1-00121-00391098761ADDAG12000GF108991061051008001071999MA1999999098641MD1710121+9999
0115010010999991995021606004+70933-008667FM-12+0009ENJA V0203501N01031007501CN0200001N1-00101-00431098701ADDAA199999929AG10000GF108991071051008001071999KA1120N-00171MA1999999098581MD1710061+9999REMSYN017 333 21017 91138;
0087010010999991995021609004+70933-008667FM-12+0009ENJA V0203501N01231024001CN0200001N1-00041-00331098731ADDAG12001AY181031AY221031GF106991041051008001071999MA1999999098611MD1310031+9999MW1021
0138010010999991995021612004+70933-008667FM-12+0009ENJA V0203601N01291024001CN0150001N1-00041-00311098751ADDAA106999929AG10001AY181061AY221061GF106991021051004501071081MA1999999098631MD1210021+9999MW1011SA1-0029REMSYN023 222// 01002 333 91134;
0087010010999991995021615004+70933-008667FM-12+0009ENJA V0203601N01491004201CN0008001N1-00081-00191098751ADDAG12001AY181031AY231031GF107991051091004501071081MA1999999098631MD1010001+9999MW1851
0137010010999991995021618004+70933-008667FM-12+0009ENJA V0203601N01391002101CN0012001N1-00101-00181098701ADDAA199000191AG10001AY181061AY231061GF108991081091002501999999KA1120M+00011MA1999999098581MD1710051+9999MW1851REMSYN017 333 10001 91138;
0087010010999991995021621004+70933-008667FM-12+0009ENJA V0203501N00571006001CN0030001N1+00031-00051098691ADDAG12001AY181031AY231031GF108991081081002501999999MA1999999098581MD1410001+9999MW1851
0118010010999991995021700004+70933-008667FM-12+0009ENJA V0203301N00821006001CN0030001N1+00081-00091098691ADDAA106000191AG10001AY181061AY231061GF107991071081002501999999MA1999999098581MD1410001+9999MW1851REMSYN011 333 91133;
0103010010999991995021703004+70933-008667FM-12+0009ENJA V0203601N01391000601CN0008001N1-00081-00201098771ADDAG12001AY181031AY231031GA1091+999999999GF109991091999999999999999MA1999999098651MD1210071+9999MW1861
0153010010999991995021706004+70933-008667FM-12+0009ENJA V0203601N01291000301CN0004001N1-00091-00161098731ADDAA199000591AG10001AY181061AY231061GA1091+999999999GF109991091999999999999999KA1120N-00131MA1999999098611MD1710041+9999MW1861REMSYN017 333 21013 91142;
0106010010999991995021709004+70933-008667FM-12+0009ENJA V0203601N013919999999N0015001N1-00041-00121098631ADDAG12001AY181031AY231031GF107991999031002501999999MA1999999098511MD1710101+9999MW1381EQDQ01+000082SCOTLC
0138010010999991995021712004+70933-008667FM-12+0009ENJA V0203601N01291002101CN0010001N1-00011-00081098581ADDAA106000591AG10001AY181061AY231061GF107991061031002501061999MA1999999098461MD1710051+9999MW1851SA1-0029REMSYN023 222// 01002 333 91137;
0103010010999991995021715004+70933-008667FM-12+0009ENJA V0203601N01231000301CN0005001N1-00041-00111098721ADDAG12001AY181031AY231031GA1091+999999999GF109991091999999999999999MA1999999098601MD1210141+9999MW1861
0153010010999991995021718004+70933-008667FM-12+0009ENJA V0203601N01341000301CN0005001N1-00051-00121098711ADDAA199001091AG10001AY181061AY231061GA1091+999999999GF109991091999999999999999KA1120M-00011MA1999999098591MD1710011+9999MW1861REMSYN017 333 11001 91136;
0087010010999991995021721004+70933-008667FM-12+0009ENJA V0203601N01031006001CN0030001N1-00041-00111098731ADDAG12001AY181031AY231031GF107991071081002501999999MA1999999098611MD1710021+9999MW1381
0118010010999991995021800004+70933-008667FM-12+0009ENJA V0203601N00771009001CN0150001N1+00011-00061098801ADDAA106999929AG10001AY181061AY231061GF107991061081004501071999MA1999999098691MD1210081+9999MW1021REMSYN011 333 91134;
0087010010999991995021803004+70933-008667FM-12+0009ENJA V0203601N01031009001CN0150001N1-00031-00101098881ADDAG12001AY181031AY221031GF107991071081004501999999MA1999999098761MD1210071+9999MW1021
0137010010999991995021806004+70933-008667FM-12+0009ENJA V0203601N01081024001CN0200001N1-00051-00161098881ADDAA199999929AG10001AY181061AY221061GF107991031081004501041021KA1120N-00061MA1999999098761MD1410001+9999MW1011REMSYN017 333 21006 91133;
0087010010999991995021809004+70933-008667FM-12+0009ENJA V0203501N01231009001CN0200001N1-00071-00351098931ADDAG12000AY121031AY221031GF107991051081004501071021MA1999999098811MD1210051+9999MW1151
0116010010999991995021812004+70933-008667FM-12+0009ENJA V0203501N00981024001CN0250001N1-00081-00301098981ADDAA106000091AG14000GF105991031081002501031021MA1999999098861MD1210051+9999SA1-0019REMSYN023 222// 01001 333 91135;
0065010010999991995021815004+70933-008667FM-12+0009ENJA V0203001N00461220001CN0300001N1-00021-00321099051ADDAG12000GF104991021081004501031021MA1999999098931MD1210071+9999
0158010010999991995021817004+70933-008667FM-12+0009ENJA V0200801N010319999999N0150001N1-00081-00301099211ADDAA106000091AG14999AY111021AY211021GF105991999001004501071999KA1120M+00041MA1999999099091MW1151REMSYN017 333 10004 91126;EQDQ01+000062SCOTLCQ02+999990APOSLP
0137010010999991995021818004+70933-008667FM-12+0009ENJA V0200801N01031009001CN0150001N1-00081-00301099211ADDAA106000091AG14000AY111061AY211061GF108991061081004501071999KA1120M+00041MA1999999099091MD1210161+9999MW1151REMSYN017 333 10004 91126;
0065010010999991995021821004+70933-008667FM-12+0009ENJA V0200901N00871220001CN0200001N1-00091-00411099151ADDAG12000GF104991021081004501071011MA1999999099031MD1810061+9999
0118010010999991995021900004+70933-008667FM-12+0009ENJA V0201101N00571009001CN0250001N1-00121-00521099291ADDAA106999929AG10001AY181061AY221061GF108991081081004501999999MA1999999099171MD1210141+9999MW1851REMSYN011 333 91132;
0087010010999991995021903004+70933-008667FM-12+0009ENJA V0203601N00621012001CN0300001N1-00231-00631099301ADDAG12001AY181031AY221031GF108991081081008001999999MA1999999099181MD1210011+9999MW1021
0137010010999991995021906004+70933-008667FM-12+0009ENJA V0200101N00871012001CN0250001N1-00241-00571099201ADDAA199000191AG10001AY181061AY231061GF107991051081008001071999KA1120N-00261MA1999999099081MD1710101+9999MW1851REMSYN017 333 21026 91126;
0087010010999991995021909004+70933-008667FM-12+0009ENJA V0203601N00981009001CN0080001N1-00261-00561099171ADDAG12001AY181031AY231031GF107991061081004501071999MA1999999099051MD1710031+9999MW1851
0138010010999991995021912004+70933-008667FM-12+0009ENJA V0200101N01031009001CN0150001N1-00281-00631099141ADDAA106000191AG10001AY181061AY231061GF107991061081004501071999MA1999999099021MD1710031+9999MW1151SA1-0029REMSYN023 222// 01002 333 91133;
0087010010999991995021915004+70933-008667FM-12+0009ENJA V0203601N00871006001CN0015001N1-00201-00361098991ADDAG12001AY181031AY231031GF107991061081002501061999MA1999999098871MD1710151+9999MW1851
0137010010999991995021918004+70933-008667FM-12+0009ENJA V0203301N00621012001CN0250001N1-00111-00431098861ADDAA199000591AG10001AY181061AY231061GF107991061081008001061999KA1120M-00081MA1999999098741MD1710131+9999MW1851REMSYN017 333 11008 91130;
0087010010999991995021921004+70933-008667FM-12+0009ENJA V0200901N00981220001CN0500001N1-00131-00461098841ADDAG12001AY181031AY221031GF101991011081008001001001MA1999999098721MD1610021+9999MW1011
0118010010999991995022000004+70933-008667FM-12+0009ENJA V0203201N00871220001CN0550001N1-00131-00531098851ADDAA106999929AG10001AY181061AY211061GF101991011051008001001001MA1999999098731MD1210011+9999MW1021REMSYN011 333 91124;
0065010010999991995022003004+70933-008667FM-12+0009ENJA V0200701N00361220001CN0550001N1-00011-00451098901ADDAG12000GF104991021051008001071081MA1999999098781MD1210051+9999
0115010010999991995022004004+70933-008667FM-12+0009ENJA V0200701N00621220001CN0500001N1+00001-00441098951ADDAA199999929AG10999GF104991021051008001071081KA1120N-00241MA1999999098831MD1210051+9999REMSYN017 333 21024 91125;
0115010010999991995022006004+70933-008667FM-12+0009ENJA V0200701N00621220001CN0500001N1+00001-00441098951ADDAA199999929AG10000GF104991021051008001071081KA1120N-00241MA1999999098831MD1210051+9999REMSYN017 333 21024 91125;
0065010010999991995022009004+70933-008667FM-12+0009ENJA V0200901N00461024001CN0150001N1+00031-00381099051ADDAG12000GF107991041061004501071001MA1999999098941MD1210101+9999
0116010010999991995022012004+70933-008667FM-12+0009ENJA V0200901N00981024001CN0150001N1-00031-00381099181ADDAA106000091AG14000GF107991031051004501031011MA1999999099061MD1210131+9999SA1-0029REMSYN023 222// 01002 333 91128;
0065010010999991995022015004+70933-008667FM-12+0009ENJA V0203301N00461024001CN0150001N1-00071-00551099261ADDAG12000GF106991031061004501031011MA1999999099141MD1210081+9999
0115010010999991995022018004+70933-008667FM-12+0009ENJA V0203601N00671220001CN0200001N1-00121-00631099321ADDAA106000091AG14000GF103991021051008001071081KA1120M+00081MA1999999099201MD1210061+9999REMSYN017 333 10008 91125;
0087010010999991995022021004+70933-008667FM-12+0009ENJA V0200101N01231024001CN0040001N1-00211-00511099411ADDAG12001AY181031AY231031GF106991041051004501071081MA1999999099291MD1310091+9999MW1851
0118010010999991995022100004+70933-008667FM-12+0009ENJA V0200101N01391009001CN0050001N1-00351-00601099471ADDAA106999929AG10001AY181061AY231061GF108991081081004501999999MA1999999099351MD1210061+9999MW1381REMSYN011 333 91133;
0087010010999991995022103004+70933-008667FM-12+0009ENJA V0203501N00981009001CN0150001N1-00451-00691099481ADDAG12000AY131031AY221031GF108991081081004501999999MA1999999099361MD1210011+9999MW1151
0137010010999991995022106004+70933-008667FM-12+0009ENJA V0200101N00771009001CN0150001N1-00421-00621099361ADDAA199999929AG10000AY131061AY221061GF108991081081004501999999KA1120N-00471MA1999999099241MD1710121+9999MW1151REMSYN017 333 21047 91134;
0065010010999991995022109004+70933-008667FM-12+0009ENJA V0203601N00931004201CN0200001N1-00321-00541099271ADDAG12000GF107991061051004501071999MA1999999099151MD1710091+9999
0138010010999991995022112004+70933-008667FM-12+0009ENJA V0203401N009819999999N0150001N1-00191-00381099161ADDAA106999929AG10001AY181061AY221061GF107991999999002501999999MA1999999099041MD1710111+9999MW1261SA1-0049REMSYN023 222// 01004 333 91128;
0065010010999991995022115004+70933-008667FM-12+0009ENJA V0203601N00931002101CN0150001N1-00171-00341099061ADDAG12000GF107991061061002501071999MA1999999098941MD1710101+9999
0115010010999991995022118004+70933-008667FM-12+0009ENJA V0203501N00981004201CN0200001N1-00211-00461098951ADDAA106000091AG14000GF106991051051004501071999KA1120M-00101MA1999999098831MD1710111+9999REMSYN017 333 11010 91125;
0087010010999991995022121004+70933-008667FM-12+0009ENJA V0203601N00721220001CN0250001N1-00171-00471098931ADDAG12000AY131031AY211031GF101991011001022501071011MA1999999098811MD1710021+9999MW1011
0118010010999991995022200004+70933-008667FM-12+0009ENJA V0203501N00931220001CN0250001N1-00151-00341098841ADDAA106000091AG14000AY131061AY211061GF101991011001004501071001MA1999999098721MD1710091+9999MW1021REMSYN011 333 91124;
0065010010999991995022203004+70933-008667FM-12+0009ENJA V0203201N00721220001CN0250001N1-00091-00231098761ADDAG12000GF101991011001017501071011MA1999999098641MD1710081+9999
0115010010999991995022206004+70933-008667FM-12+0009ENJA V0203301N00461220001CN0280001N1+00041-00181098721ADDAA106000091AG14000GF102991011001022501071051KA1120N-00441MA1999999098611MD1710031+9999REMSYN017 333 21044 91124;
0065010010999991995022209004+70933-008667FM-12+0009ENJA V0203301N00721024001CN0300001N1-00011-00221098811ADDAG12000GF107991031081002501041021MA1999999098691MD1310081+9999
0116010010999991995022212004+70933-008667FM-12+0009ENJA V0202001N00461006001CN0300001N1-00021-00161098921ADDAA106000091AG14000GF107991061081002501041081MA1999999098801MD1210111+9999SA1-0029REMSYN023 222// 01002 333 91124;
0065010010999991995022215004+70933-008667FM-12+0009ENJA V0202301N00721024001CN0300001N1+00031-00141098941ADDAG12000GF107991041081002501041021MA1999999098831MD1210031+9999
0115010010999991995022218004+70933-008667FM-12+0009ENJA V0209991V00261024001CN0250001N1-00041-00261099041ADDAA106000091AG14000GF107991041081002501071021KA1120M+00061MA1999999098921MD1210091+9999REMSYN017 333 10006 91118;
0065010010999991995022221004+70933-008667FM-12+0009ENJA V0203501N00721024001CN0200001N1-00011-00161099121ADDAG12000GF106991041081004501071999MA1999999099001MD1210081+9999
0096010010999991995022300004+70933-008667FM-12+0009ENJA V0203501N00721009001CN0250001N1+00021-00191099121ADDAA106000091AG14000GF108991061081004501071999MA1999999099011MD1010011+9999REMSYN011 333 91127;
0087010010999991995022303004+70933-008667FM-12+0009ENJA V0203601N00871009001CN0200001N1-00051-00251099221ADDAG12000AY131031AY221031GF107991061081004501071999MA1999999099101MD1210091+9999MW1361
0137010010999991995022306004+70933-008667FM-12+0009ENJA V0200101N01541006001CN0150001N1-00091-00311099231ADDAA199999929AG10001AY181061AY231061GF107991061081002501071999KA1120N-00101MA1999999099111MD1210011+9999MW1381REMSYN017 333 21010 91137;
0087010010999991995022309004+70933-008667FM-12+0009ENJA V0200101N01591006001CN0040001N1-00101-00281099261ADDAG12000AY131031AY221031GF107991061081002501071999MA1999999099141MD1210031+9999MW1381
0138010010999991995022312004+70933-008667FM-12+0009ENJA V0200101N01541006001CN0200001N1-00141-00471099281ADDAA106000091AG14000AY131061AY221061GF107991051081002501061999MA1999999099161MD1210021+9999MW1151SA1-0029REMSYN023 222// 01002 333 91145;
0087010010999991995022315004+70933-008667FM-12+0009ENJA V0200101N01541002101CN0150001N1-00161-00471099311ADDAG12000AY131031AY221031GF107991061091002501061999MA1999999099191MD1210031+9999MW1151
0137010010999991995022318004+70933-008667FM-12+0009ENJA V0203601N01231009001CN0100001N1-00151-00471099311ADDAA106000091AG15000AY131061AY221061GF108991061081004501071999KA1120M-00081MA1999999099191MD1410001+9999MW1151REMSYN017 333 11008 91141;
0103010010999991995022321004+70933-008667FM-12+0009ENJA V0203601N01181000601CN0010001N1-00151-00341099291ADDAG12001AY171031AY231031GA1091+999999999GF109991091999999999999999MA1999999099171MD1710021+9999MW1711
0118010010999991995022400004+70933-008667FM-12+0009ENJA V0203601N01231024001CN0060001N1-00141-00421099291ADDAA106000191AG10001AY181061AY271061GF106991041081008001071999MA1999999099171MD1410001+9999MW1851REMSYN011 333 91135;
0087010010999991995022403004+70933-008667FM-12+0009ENJA V0200101N01341009001CN0050001N1-00181-00631099261ADDAG12001AY181031AY231031GF108991081081004501999999MA1999999099141MD1710031+9999MW1851
0137010010999991995022406004+70933-008667FM-12+0009ENJA V0203601N01641007501CN0080001N1-00181-00561099171ADDAA199000191AG10001AY181061AY231061GF108991071051008001999999KA1120N-00221MA1999999099051MD1710091+9999MW1361REMSYN017 333 21022 91142;
0103010010999991995022409004+70933-008667FM-12+0009ENJA V0203601N01441000151CN0001001N1-00251-00361099151ADDAG12001AY181031AY231031GA1091+999999999GF109991091999999999999999MA1999999099031MD1710021+9999MW1861
0154010010999991995022412004+70933-008667FM-12+0009ENJA V0200101N01591000151CN0001001N1-00191-00251099161ADDAA106004091AG10001AY181061AY271061GA1091+999999999GF109991091999999999999999MA1999999099041MD1210011+9999MW1731SA1-0069REMSYN023 222// 01006 333 91143;
0103010010999991995022415004+70933-008667FM-12+0009ENJA V0200101N01591000151CN0001001N1-00241-00291099291ADDAG12001AY171031AY231031GA1091+999999999GF109991091999999999999999MA1999999099171MD1210131+9999MW1731
0153010010999991995022418004+70933-008667FM-12+0009ENJA V0200101N01391000301CN0002001N1-00291-00341099401ADDAA199004091AG10001AY181061AY271061GA1091+999999999GF109991091999999999999999KA1120M-00101MA1999999099281MD1210111+9999MW1851REMSYN017 333 11010 91144;
0103010010999991995022421004+70933-008667FM-12+0009ENJA V0200101N01131220001CN0080001N1-00311-00381099581ADDAG12001AY181031AY231031GA1001+999999999GF100991001001999999001001MA1999999099461MD1210181+9999MW1381
0118010010999991995022500004+70933-008667FM-12+0009ENJA V0203601N01291220001CN0030001N1-00421-00531099651ADDAA106000191AG10001AY181061AY231061GF103991031051004501001001MA1999999099531MD1210071+9999MW1381REMSYN011 333 91139;
0087010010999991995022503004+70933-008667FM-12+0009ENJA V0203601N01031024001CN0050001N1-00471-00731099681ADDAG12001AY181031AY231031GF106991031091008001061031MA1999999099561MD1110031+9999MW1851
0137010010999991995022506004+70933-008667FM-12+0009ENJA V0203601N01031012001CN0100001N1-00551-00961099651ADDAA199000191AG10001AY181061AY231061GF107991071081008001999999KA1120N-00561MA1999999099531MD1610031+9999MW1851REMSYN017 333 21056 91132;
0087010010999991995022509004+70933-008667FM-12+0009ENJA V0203601N01131012001CN0040001N1-00571-00961099681ADDAG12001AY181031AY231031GF108991071081008001999999MA1999999099561MD1210031+9999MW1851
0138010010999991995022512004+70933-008667FM-12+0009ENJA V0203601N00981012001CN0006001N1-00591-00911099661ADDAA106999929AG10001AY181061AY231061GF107991061081008001999999MA1999999099541MD1710021+9999MW1381SA1-0079REMSYN023 222// 01007 333 91129;
0087010010999991995022515004+70933-008667FM-12+0009ENJA V0203401N01391009001CN0002001N1-00611-00881099591ADDAG12001AY181031AY231031GF108991081081004501999999MA1999999099471MD1810071+9999MW1861
0137010010999991995022518004+70933-008667FM-12+0009ENJA V0203401N01391009001CN0015001N1-00621-00881099651ADDAA199001091AG10001AY181061AY231061GF108991061081004501061999KA1120M-00521MA1999999099531MD1310061+9999MW1381REMSYN017 333 11052 91141;
0103010010999991995022521004+70933-008667FM-12+0009ENJA V0203401N01391000301CN0002001N1-00641-00831099661ADDAG12001AY181031AY231031GA1091+999999999GF109991091999999999999999MA1999999099541MD1110011+9999MW1851
0153010010999991995022600004+70933-008667FM-12+0009ENJA V0203301N01391000301CN0002001N1-00571-00741099671ADDAA106001091AG10001AY181061AY231061GA1091+999999999GF109991091999999999999999MA1999999099541MD1410001+9999MW1851REMSYN011 333 91140;EQDQ01+999990APOSLP
0103010010999991995022603004+70933-008667FM-12+0009ENJA V0203401N01341001201CN0015001N1-00481-00661099691ADDAG12001AY181031AY231031GA1091+999999999GF109991091999999999999999MA1999999099571MD1210031+9999MW1381
0153010010999991995022606004+70933-008667FM-12+0009ENJA V0203401N01391000601CN0008001N1-00491-00641099711ADDAA199002091AG10001AY181061AY231061GA1091+999999999GF109991091999999999999999KA1120N-00651MA1999999099591MD1210021+9999MW1851REMSYN017 333 21065 91140;
0103010010999991995022609004+70933-008667FM-12+0009ENJA V0203401N01341000601CN0010001N1-00511-00671099791ADDAG12001AY181031AY231031GA1091+999999999GF109991091999999999999999MA1999999099671MD1210081+9999MW1381
0138010010999991995022612004+70933-008667FM-12+0009ENJA V0203401N01181004201CN0025001N1-00541-00771099911ADDAA106000591AG10001AY181061AY231061GF108991081091004501999999MA1999999099791MD1210121+9999MW1381SA1-0079REMSYN023 222// 01007 333 91139;
0087010010999991995022615004+70933-008667FM-12+0009ENJA V0203401N01131004201CN0040001N1-00591-00781099841ADDAG12001AY181031AY231031GF107991071091004501999999MA1999999099721MD1810071+9999MW1381
0137010010999991995022618004+70933-008667FM-12+0009ENJA V0203301N01031009001CN0120001N1-00581-00801099751ADDAA199000591AG10001AY181061AY231061GF108991081081004501999999KA1120M-00461MA1999999099631MD1710091+9999MW1151REMSYN017 333 11046 91137;
0087010010999991995022621004+70933-008667FM-12+0009ENJA V0203401N01081009001CN0050001N1-00541-00741099511ADDAG12001AY181031AY231031GF108991081081004501999999MA1999999099391MD1710241+9999MW1851
0118010010999991995022700004+70933-008667FM-12+0009ENJA V0203201N01181009001CN0040001N1-00551-00751099341ADDAA106000191AG10001AY181061AY231061GF108991081081004501999999MA1999999099221MD1710171+9999MW1851REMSYN011 333 91135;
0087010010999991995022703004+70933-008667FM-12+0009ENJA V0203401N00931009001CN0050001N1-00481-00761099101ADDAG12001AY181031AY231031GF108991071081004501071999MA1999999098981MD1710241+9999MW1361
0137010010999991995022706004+70933-008667FM-12+0009ENJA V0203601N00311004201CN0200001N1-00501-00791098861ADDAA199000391AG10001AY181061AY231061GF108991071051004501071999KA1120N-00591MA1999999098741MD1710241+9999MW1021REMSYN017 333 21059 91126;
0087010010999991995022709004+70933-008667FM-12+0009ENJA V0209991C00001007501CN0200001N1-00501-00761098651ADDAG12001AY171031AY221031GF108991061051008001021999MA1999999098531MD1710211+9999MW1701
0138010010999991995022712004+70933-008667FM-12+0009ENJA V0203601N00261007501CN0250001N1-00401-00641098411ADDAA106000191AG10001AY171061AY221061GF108991051051008001071999MA1999999098291MD1710241+9999MW1221SA1-0049REMSYN023 222// 01004 333 91109;
0087010010999991995022715004+70933-008667FM-12+0009ENJA V0203501N00101007501CN0020001N1-00351-00561098091ADDAG12001AY171031AY271031GF108991051051008001021999MA1999999097971MD1710321+9999MW1711
